{
	"merkle_tree/_MerkleTree.sol": {
		"Tree": {
			"abi": [
				{
					"inputs": [],
					"stateMutability": "nonpayable",
					"type": "constructor"
				},
				{
					"inputs": [],
					"name": "getRoot",
					"outputs": [
						{
							"internalType": "bytes32",
							"name": "",
							"type": "bytes32"
						}
					],
					"stateMutability": "view",
					"type": "function"
				},
				{
					"inputs": [
						{
							"internalType": "uint256",
							"name": "",
							"type": "uint256"
						}
					],
					"name": "hashes",
					"outputs": [
						{
							"internalType": "bytes32",
							"name": "",
							"type": "bytes32"
						}
					],
					"stateMutability": "view",
					"type": "function"
				},
				{
					"inputs": [
						{
							"internalType": "bytes32",
							"name": "root",
							"type": "bytes32"
						},
						{
							"internalType": "bytes32",
							"name": "leaf",
							"type": "bytes32"
						},
						{
							"internalType": "uint256",
							"name": "index",
							"type": "uint256"
						},
						{
							"internalType": "bytes32[]",
							"name": "proof",
							"type": "bytes32[]"
						}
					],
					"name": "verify",
					"outputs": [
						{
							"internalType": "bool",
							"name": "",
							"type": "bool"
						}
					],
					"stateMutability": "pure",
					"type": "function"
				}
			],
			"devdoc": {
				"kind": "dev",
				"methods": {},
				"version": 1
			},
			"evm": {
				"assembly": "    /* \"merkle_tree/_MerkleTree.sol\":62:1261  contract Tree {... */\n  mstore(0x40, 0x80)\n    /* \"merkle_tree/_MerkleTree.sol\":111:157  string[4] heroes = [\"Leo\",\"Raf\",\"Don\",\"Mikey\"] */\n  mload(0x40)\n  dup1\n  0x80\n  add\n  0x40\n  mstore\n  dup1\n  mload(0x40)\n  dup1\n  0x40\n  add\n  0x40\n  mstore\n  dup1\n  0x03\n  dup2\n  mstore\n  0x20\n  add\n  0x4c656f0000000000000000000000000000000000000000000000000000000000\n  dup2\n  mstore\n  pop\n  dup2\n  mstore\n  0x20\n  add\n  mload(0x40)\n  dup1\n  0x40\n  add\n  0x40\n  mstore\n  dup1\n  0x03\n  dup2\n  mstore\n  0x20\n  add\n  0x5261660000000000000000000000000000000000000000000000000000000000\n  dup2\n  mstore\n  pop\n  dup2\n  mstore\n  0x20\n  add\n  mload(0x40)\n  dup1\n  0x40\n  add\n  0x40\n  mstore\n  dup1\n  0x03\n  dup2\n  mstore\n  0x20\n  add\n  0x446f6e0000000000000000000000000000000000000000000000000000000000\n  dup2\n  mstore\n  pop\n  dup2\n  mstore\n  0x20\n  add\n  mload(0x40)\n  dup1\n  0x40\n  add\n  0x40\n  mstore\n  dup1\n  0x05\n  dup2\n  mstore\n  0x20\n  add\n  0x4d696b6579000000000000000000000000000000000000000000000000000000\n  dup2\n  mstore\n  pop\n  dup2\n  mstore\n  pop\n  0x01\n  swap1\n  0x04\n  tag_1\n  swap3\n  swap2\n  swap1\n  tag_2\n  jump\t// in\ntag_1:\n  pop\n    /* \"merkle_tree/_MerkleTree.sol\":164:641  constructor(){... */\n  callvalue\n  dup1\n  iszero\n  tag_3\n  jumpi\n  0x00\n  dup1\n  revert\ntag_3:\n  pop\n    /* \"merkle_tree/_MerkleTree.sol\":191:197  uint i */\n  0x00\n    /* \"merkle_tree/_MerkleTree.sol\":187:301  for(uint i = 0; i<heroes.length; i++) {... */\ntag_6:\n    /* \"merkle_tree/_MerkleTree.sol\":205:218  heroes.length */\n  0x04\n    /* \"merkle_tree/_MerkleTree.sol\":203:204  i */\n  dup2\n    /* \"merkle_tree/_MerkleTree.sol\":203:218  i<heroes.length */\n  lt\n    /* \"merkle_tree/_MerkleTree.sol\":187:301  for(uint i = 0; i<heroes.length; i++) {... */\n  iszero\n  tag_7\n  jumpi\n    /* \"merkle_tree/_MerkleTree.sol\":239:245  hashes */\n  0x00\n    /* \"merkle_tree/_MerkleTree.sol\":278:284  heroes */\n  0x01\n    /* \"merkle_tree/_MerkleTree.sol\":285:286  i */\n  dup3\n    /* \"merkle_tree/_MerkleTree.sol\":278:287  heroes[i] */\n  0x04\n  dup2\n  lt\n  tag_9\n  jumpi\n  tag_10\n  tag_11\n  jump\t// in\ntag_10:\ntag_9:\n  add\n    /* \"merkle_tree/_MerkleTree.sol\":261:288  abi.encodePacked(heroes[i]) */\n  add(0x20, mload(0x40))\n  tag_13\n  swap2\n  swap1\n  tag_14\n  jump\t// in\ntag_13:\n  mload(0x40)\n  0x20\n  dup2\n  dup4\n  sub\n  sub\n  dup2\n  mstore\n  swap1\n  0x40\n  mstore\n    /* \"merkle_tree/_MerkleTree.sol\":251:289  keccak256(abi.encodePacked(heroes[i])) */\n  dup1\n  mload\n  swap1\n  0x20\n  add\n  keccak256\n    /* \"merkle_tree/_MerkleTree.sol\":239:290  hashes.push(keccak256(abi.encodePacked(heroes[i]))) */\n  swap1\n  dup1\n  0x01\n  dup2\n  sload\n  add\n  dup1\n  dup3\n  sstore\n  dup1\n  swap2\n  pop\n  pop\n  0x01\n  swap1\n  sub\n  swap1\n  0x00\n  mstore\n  keccak256(0x00, 0x20)\n  add\n  0x00\n  swap1\n  swap2\n  swap1\n  swap2\n  swap1\n  swap2\n  pop\n  sstore\n    /* \"merkle_tree/_MerkleTree.sol\":220:223  i++ */\n  dup1\n  dup1\n  tag_16\n  swap1\n  tag_17\n  jump\t// in\ntag_16:\n  swap2\n  pop\n  pop\n    /* \"merkle_tree/_MerkleTree.sol\":187:301  for(uint i = 0; i<heroes.length; i++) {... */\n  jump(tag_6)\ntag_7:\n  pop\n    /* \"merkle_tree/_MerkleTree.sol\":310:316  uint n */\n  0x00\n    /* \"merkle_tree/_MerkleTree.sol\":319:332  heroes.length */\n  0x04\n    /* \"merkle_tree/_MerkleTree.sol\":310:332  uint n = heroes.length */\n  swap1\n  pop\n    /* \"merkle_tree/_MerkleTree.sol\":342:353  uint offset */\n  0x00\n    /* \"merkle_tree/_MerkleTree.sol\":367:635  while (n > 0) {... */\ntag_18:\n    /* \"merkle_tree/_MerkleTree.sol\":378:379  0 */\n  0x00\n    /* \"merkle_tree/_MerkleTree.sol\":374:375  n */\n  dup3\n    /* \"merkle_tree/_MerkleTree.sol\":374:379  n > 0 */\n  gt\n    /* \"merkle_tree/_MerkleTree.sol\":367:635  while (n > 0) {... */\n  iszero\n  tag_19\n  jumpi\n    /* \"merkle_tree/_MerkleTree.sol\":399:405  uint i */\n  0x00\n    /* \"merkle_tree/_MerkleTree.sol\":395:579  for(uint i = 0; i < n-1; i+=2) {... */\ntag_20:\n    /* \"merkle_tree/_MerkleTree.sol\":417:418  1 */\n  0x01\n    /* \"merkle_tree/_MerkleTree.sol\":415:416  n */\n  dup4\n    /* \"merkle_tree/_MerkleTree.sol\":415:418  n-1 */\n  tag_23\n  swap2\n  swap1\n  tag_24\n  jump\t// in\ntag_23:\n    /* \"merkle_tree/_MerkleTree.sol\":411:412  i */\n  dup2\n    /* \"merkle_tree/_MerkleTree.sol\":411:418  i < n-1 */\n  lt\n    /* \"merkle_tree/_MerkleTree.sol\":395:579  for(uint i = 0; i < n-1; i+=2) {... */\n  iszero\n  tag_21\n  jumpi\n    /* \"merkle_tree/_MerkleTree.sol\":444:459  bytes32 newHash */\n  0x00\n    /* \"merkle_tree/_MerkleTree.sol\":489:495  hashes */\n  dup1\n    /* \"merkle_tree/_MerkleTree.sol\":498:504  offset */\n  dup4\n    /* \"merkle_tree/_MerkleTree.sol\":496:497  i */\n  dup4\n    /* \"merkle_tree/_MerkleTree.sol\":496:504  i+offset */\n  tag_25\n  swap2\n  swap1\n  tag_26\n  jump\t// in\ntag_25:\n    /* \"merkle_tree/_MerkleTree.sol\":489:505  hashes[i+offset] */\n  dup2\n  sload\n  dup2\n  lt\n  tag_27\n  jumpi\n  tag_28\n  tag_11\n  jump\t// in\ntag_28:\ntag_27:\n  swap1\n  0x00\n  mstore\n  keccak256(0x00, 0x20)\n  add\n  sload\n    /* \"merkle_tree/_MerkleTree.sol\":506:512  hashes */\n  0x00\n    /* \"merkle_tree/_MerkleTree.sol\":522:523  1 */\n  0x01\n    /* \"merkle_tree/_MerkleTree.sol\":515:521  offset */\n  dup6\n    /* \"merkle_tree/_MerkleTree.sol\":513:514  i */\n  dup6\n    /* \"merkle_tree/_MerkleTree.sol\":513:521  i+offset */\n  tag_30\n  swap2\n  swap1\n  tag_26\n  jump\t// in\ntag_30:\n    /* \"merkle_tree/_MerkleTree.sol\":513:523  i+offset+1 */\n  tag_31\n  swap2\n  swap1\n  tag_26\n  jump\t// in\ntag_31:\n    /* \"merkle_tree/_MerkleTree.sol\":506:524  hashes[i+offset+1] */\n  dup2\n  sload\n  dup2\n  lt\n  tag_32\n  jumpi\n  tag_33\n  tag_11\n  jump\t// in\ntag_33:\ntag_32:\n  swap1\n  0x00\n  mstore\n  keccak256(0x00, 0x20)\n  add\n  sload\n    /* \"merkle_tree/_MerkleTree.sol\":472:525  abi.encodePacked(hashes[i+offset],hashes[i+offset+1]) */\n  add(0x20, mload(0x40))\n  tag_35\n  swap3\n  swap2\n  swap1\n  tag_36\n  jump\t// in\ntag_35:\n  mload(0x40)\n  0x20\n  dup2\n  dup4\n  sub\n  sub\n  dup2\n  mstore\n  swap1\n  0x40\n  mstore\n    /* \"merkle_tree/_MerkleTree.sol\":462:526  keccak256(abi.encodePacked(hashes[i+offset],hashes[i+offset+1])) */\n  dup1\n  mload\n  swap1\n  0x20\n  add\n  keccak256\n    /* \"merkle_tree/_MerkleTree.sol\":444:526  bytes32 newHash = keccak256(abi.encodePacked(hashes[i+offset],hashes[i+offset+1])) */\n  swap1\n  pop\n    /* \"merkle_tree/_MerkleTree.sol\":544:550  hashes */\n  0x00\n    /* \"merkle_tree/_MerkleTree.sol\":556:563  newHash */\n  dup2\n    /* \"merkle_tree/_MerkleTree.sol\":544:564  hashes.push(newHash) */\n  swap1\n  dup1\n  0x01\n  dup2\n  sload\n  add\n  dup1\n  dup3\n  sstore\n  dup1\n  swap2\n  pop\n  pop\n  0x01\n  swap1\n  sub\n  swap1\n  0x00\n  mstore\n  keccak256(0x00, 0x20)\n  add\n  0x00\n  swap1\n  swap2\n  swap1\n  swap2\n  swap1\n  swap2\n  pop\n  sstore\n    /* \"merkle_tree/_MerkleTree.sol\":426:579  {... */\n  pop\n    /* \"merkle_tree/_MerkleTree.sol\":423:424  2 */\n  0x02\n    /* \"merkle_tree/_MerkleTree.sol\":420:424  i+=2 */\n  dup2\n  tag_38\n  swap2\n  swap1\n  tag_26\n  jump\t// in\ntag_38:\n  swap1\n  pop\n    /* \"merkle_tree/_MerkleTree.sol\":395:579  for(uint i = 0; i < n-1; i+=2) {... */\n  jump(tag_20)\ntag_21:\n  pop\n    /* \"merkle_tree/_MerkleTree.sol\":602:603  n */\n  dup2\n    /* \"merkle_tree/_MerkleTree.sol\":592:603  offset += n */\n  dup2\n  tag_39\n  swap2\n  swap1\n  tag_26\n  jump\t// in\ntag_39:\n  swap1\n  pop\n    /* \"merkle_tree/_MerkleTree.sol\":623:624  2 */\n  0x02\n    /* \"merkle_tree/_MerkleTree.sol\":619:620  n */\n  dup3\n    /* \"merkle_tree/_MerkleTree.sol\":619:624  n / 2 */\n  tag_40\n  swap2\n  swap1\n  tag_41\n  jump\t// in\ntag_40:\n    /* \"merkle_tree/_MerkleTree.sol\":617:624  n=n / 2 */\n  swap2\n  pop\n    /* \"merkle_tree/_MerkleTree.sol\":367:635  while (n > 0) {... */\n  jump(tag_18)\ntag_19:\n    /* \"merkle_tree/_MerkleTree.sol\":177:641  {... */\n  pop\n  pop\n    /* \"merkle_tree/_MerkleTree.sol\":62:1261  contract Tree {... */\n  jump(tag_42)\ntag_2:\n  dup3\n  0x04\n  dup2\n  add\n  swap3\n  dup3\n  iszero\n  tag_43\n  jumpi\n  swap2\n  0x20\n  mul\n  dup3\n  add\ntag_44:\n  dup3\n  dup2\n  gt\n  iszero\n  tag_45\n  jumpi\n  dup3\n  mload\n  dup3\n  swap1\n  dup1\n  mload\n  swap1\n  0x20\n  add\n  swap1\n  tag_46\n  swap3\n  swap2\n  swap1\n  tag_47\n  jump\t// in\ntag_46:\n  pop\n  swap2\n  0x20\n  add\n  swap2\n  swap1\n  0x01\n  add\n  swap1\n  jump(tag_44)\ntag_45:\ntag_43:\n  pop\n  swap1\n  pop\n  tag_48\n  swap2\n  swap1\n  tag_49\n  jump\t// in\ntag_48:\n  pop\n  swap1\n  jump\t// out\ntag_47:\n  dup3\n  dup1\n  sload\n  tag_50\n  swap1\n  tag_51\n  jump\t// in\ntag_50:\n  swap1\n  0x00\n  mstore\n  keccak256(0x00, 0x20)\n  swap1\n  0x1f\n  add\n  0x20\n  swap1\n  div\n  dup2\n  add\n  swap3\n  dup3\n  tag_53\n  jumpi\n  0x00\n  dup6\n  sstore\n  jump(tag_52)\ntag_53:\n  dup3\n  0x1f\n  lt\n  tag_54\n  jumpi\n  dup1\n  mload\n  not(0xff)\n  and\n  dup4\n  dup1\n  add\n  or\n  dup6\n  sstore\n  jump(tag_52)\ntag_54:\n  dup3\n  dup1\n  add\n  0x01\n  add\n  dup6\n  sstore\n  dup3\n  iszero\n  tag_52\n  jumpi\n  swap2\n  dup3\n  add\ntag_55:\n  dup3\n  dup2\n  gt\n  iszero\n  tag_56\n  jumpi\n  dup3\n  mload\n  dup3\n  sstore\n  swap2\n  0x20\n  add\n  swap2\n  swap1\n  0x01\n  add\n  swap1\n  jump(tag_55)\ntag_56:\ntag_52:\n  pop\n  swap1\n  pop\n  tag_57\n  swap2\n  swap1\n  tag_58\n  jump\t// in\ntag_57:\n  pop\n  swap1\n  jump\t// out\ntag_49:\ntag_59:\n  dup1\n  dup3\n  gt\n  iszero\n  tag_60\n  jumpi\n  0x00\n  dup2\n  dup2\n  tag_61\n  swap2\n  swap1\n  tag_62\n  jump\t// in\ntag_61:\n  pop\n  0x01\n  add\n  jump(tag_59)\ntag_60:\n  pop\n  swap1\n  jump\t// out\ntag_58:\ntag_63:\n  dup1\n  dup3\n  gt\n  iszero\n  tag_64\n  jumpi\n  0x00\n  dup2\n  0x00\n  swap1\n  sstore\n  pop\n  0x01\n  add\n  jump(tag_63)\ntag_64:\n  pop\n  swap1\n  jump\t// out\ntag_62:\n  pop\n  dup1\n  sload\n  tag_65\n  swap1\n  tag_51\n  jump\t// in\ntag_65:\n  0x00\n  dup3\n  sstore\n  dup1\n  0x1f\n  lt\n  tag_67\n  jumpi\n  pop\n  jump(tag_66)\ntag_67:\n  0x1f\n  add\n  0x20\n  swap1\n  div\n  swap1\n  0x00\n  mstore\n  keccak256(0x00, 0x20)\n  swap1\n  dup2\n  add\n  swap1\n  tag_68\n  swap2\n  swap1\n  tag_58\n  jump\t// in\ntag_68:\ntag_66:\n  pop\n  jump\t// out\n    /* \"#utility.yul\":7:164   */\ntag_70:\n    /* \"#utility.yul\":112:157   */\n  tag_72\n    /* \"#utility.yul\":132:156   */\n  tag_73\n    /* \"#utility.yul\":150:155   */\n  dup3\n    /* \"#utility.yul\":132:156   */\n  tag_74\n  jump\t// in\ntag_73:\n    /* \"#utility.yul\":112:157   */\n  tag_75\n  jump\t// in\ntag_72:\n    /* \"#utility.yul\":107:110   */\n  dup3\n    /* \"#utility.yul\":100:158   */\n  mstore\n    /* \"#utility.yul\":7:164   */\n  pop\n  pop\n  jump\t// out\n    /* \"#utility.yul\":194:1039   */\ntag_76:\n    /* \"#utility.yul\":297:300   */\n  0x00\n    /* \"#utility.yul\":334:339   */\n  dup2\n    /* \"#utility.yul\":328:340   */\n  sload\n    /* \"#utility.yul\":363:399   */\n  tag_78\n    /* \"#utility.yul\":389:398   */\n  dup2\n    /* \"#utility.yul\":363:399   */\n  tag_51\n  jump\t// in\ntag_78:\n    /* \"#utility.yul\":415:504   */\n  tag_79\n    /* \"#utility.yul\":497:503   */\n  dup2\n    /* \"#utility.yul\":492:495   */\n  dup7\n    /* \"#utility.yul\":415:504   */\n  tag_80\n  jump\t// in\ntag_79:\n    /* \"#utility.yul\":408:504   */\n  swap5\n  pop\n    /* \"#utility.yul\":535:536   */\n  0x01\n    /* \"#utility.yul\":524:533   */\n  dup3\n    /* \"#utility.yul\":520:537   */\n  and\n    /* \"#utility.yul\":551:552   */\n  0x00\n    /* \"#utility.yul\":546:683   */\n  dup2\n  eq\n  tag_82\n  jumpi\n    /* \"#utility.yul\":697:698   */\n  0x01\n    /* \"#utility.yul\":692:1033   */\n  dup2\n  eq\n  tag_83\n  jumpi\n    /* \"#utility.yul\":513:1033   */\n  jump(tag_81)\n    /* \"#utility.yul\":546:683   */\ntag_82:\n    /* \"#utility.yul\":630:634   */\n  0xff\n    /* \"#utility.yul\":626:635   */\n  not\n    /* \"#utility.yul\":615:624   */\n  dup4\n    /* \"#utility.yul\":611:636   */\n  and\n    /* \"#utility.yul\":606:609   */\n  dup7\n    /* \"#utility.yul\":599:637   */\n  mstore\n    /* \"#utility.yul\":666:672   */\n  dup2\n    /* \"#utility.yul\":661:664   */\n  dup7\n    /* \"#utility.yul\":657:673   */\n  add\n    /* \"#utility.yul\":650:673   */\n  swap4\n  pop\n    /* \"#utility.yul\":546:683   */\n  jump(tag_81)\n    /* \"#utility.yul\":692:1033   */\ntag_83:\n    /* \"#utility.yul\":759:797   */\n  tag_84\n    /* \"#utility.yul\":791:796   */\n  dup6\n    /* \"#utility.yul\":759:797   */\n  tag_85\n  jump\t// in\ntag_84:\n    /* \"#utility.yul\":819:820   */\n  0x00\n    /* \"#utility.yul\":833:987   */\ntag_86:\n    /* \"#utility.yul\":847:853   */\n  dup4\n    /* \"#utility.yul\":844:845   */\n  dup2\n    /* \"#utility.yul\":841:854   */\n  lt\n    /* \"#utility.yul\":833:987   */\n  iszero\n  tag_88\n  jumpi\n    /* \"#utility.yul\":921:928   */\n  dup2\n    /* \"#utility.yul\":915:929   */\n  sload\n    /* \"#utility.yul\":911:912   */\n  dup2\n    /* \"#utility.yul\":906:909   */\n  dup10\n    /* \"#utility.yul\":902:913   */\n  add\n    /* \"#utility.yul\":895:930   */\n  mstore\n    /* \"#utility.yul\":971:972   */\n  0x01\n    /* \"#utility.yul\":962:969   */\n  dup3\n    /* \"#utility.yul\":958:973   */\n  add\n    /* \"#utility.yul\":947:973   */\n  swap2\n  pop\n    /* \"#utility.yul\":869:873   */\n  0x20\n    /* \"#utility.yul\":866:867   */\n  dup2\n    /* \"#utility.yul\":862:874   */\n  add\n    /* \"#utility.yul\":857:874   */\n  swap1\n  pop\n    /* \"#utility.yul\":833:987   */\n  jump(tag_86)\ntag_88:\n    /* \"#utility.yul\":1016:1022   */\n  dup4\n    /* \"#utility.yul\":1011:1014   */\n  dup9\n    /* \"#utility.yul\":1007:1023   */\n  add\n    /* \"#utility.yul\":1000:1023   */\n  swap6\n  pop\n    /* \"#utility.yul\":699:1033   */\n  pop\n  pop\n    /* \"#utility.yul\":513:1033   */\ntag_81:\n  pop\n    /* \"#utility.yul\":301:1039   */\n  pop\n  pop\n    /* \"#utility.yul\":194:1039   */\n  swap3\n  swap2\n  pop\n  pop\n  jump\t// out\n    /* \"#utility.yul\":1045:1442   */\ntag_36:\n    /* \"#utility.yul\":1185:1188   */\n  0x00\n    /* \"#utility.yul\":1200:1275   */\n  tag_90\n    /* \"#utility.yul\":1271:1274   */\n  dup3\n    /* \"#utility.yul\":1262:1268   */\n  dup6\n    /* \"#utility.yul\":1200:1275   */\n  tag_70\n  jump\t// in\ntag_90:\n    /* \"#utility.yul\":1300:1302   */\n  0x20\n    /* \"#utility.yul\":1295:1298   */\n  dup3\n    /* \"#utility.yul\":1291:1303   */\n  add\n    /* \"#utility.yul\":1284:1303   */\n  swap2\n  pop\n    /* \"#utility.yul\":1313:1388   */\n  tag_91\n    /* \"#utility.yul\":1384:1387   */\n  dup3\n    /* \"#utility.yul\":1375:1381   */\n  dup5\n    /* \"#utility.yul\":1313:1388   */\n  tag_70\n  jump\t// in\ntag_91:\n    /* \"#utility.yul\":1413:1415   */\n  0x20\n    /* \"#utility.yul\":1408:1411   */\n  dup3\n    /* \"#utility.yul\":1404:1416   */\n  add\n    /* \"#utility.yul\":1397:1416   */\n  swap2\n  pop\n    /* \"#utility.yul\":1433:1436   */\n  dup2\n    /* \"#utility.yul\":1426:1436   */\n  swap1\n  pop\n    /* \"#utility.yul\":1045:1442   */\n  swap4\n  swap3\n  pop\n  pop\n  pop\n  jump\t// out\n    /* \"#utility.yul\":1448:1717   */\ntag_14:\n    /* \"#utility.yul\":1577:1580   */\n  0x00\n    /* \"#utility.yul\":1599:1691   */\n  tag_93\n    /* \"#utility.yul\":1687:1690   */\n  dup3\n    /* \"#utility.yul\":1678:1684   */\n  dup5\n    /* \"#utility.yul\":1599:1691   */\n  tag_76\n  jump\t// in\ntag_93:\n    /* \"#utility.yul\":1592:1691   */\n  swap2\n  pop\n    /* \"#utility.yul\":1708:1711   */\n  dup2\n    /* \"#utility.yul\":1701:1711   */\n  swap1\n  pop\n    /* \"#utility.yul\":1448:1717   */\n  swap3\n  swap2\n  pop\n  pop\n  jump\t// out\n    /* \"#utility.yul\":1723:1864   */\ntag_85:\n    /* \"#utility.yul\":1772:1776   */\n  0x00\n    /* \"#utility.yul\":1795:1798   */\n  dup2\n    /* \"#utility.yul\":1787:1798   */\n  swap1\n  pop\n    /* \"#utility.yul\":1818:1821   */\n  dup2\n    /* \"#utility.yul\":1815:1816   */\n  0x00\n    /* \"#utility.yul\":1808:1822   */\n  mstore\n    /* \"#utility.yul\":1852:1856   */\n  0x20\n    /* \"#utility.yul\":1849:1850   */\n  0x00\n    /* \"#utility.yul\":1839:1857   */\n  keccak256\n    /* \"#utility.yul\":1831:1857   */\n  swap1\n  pop\n    /* \"#utility.yul\":1723:1864   */\n  swap2\n  swap1\n  pop\n  jump\t// out\n    /* \"#utility.yul\":1870:2018   */\ntag_80:\n    /* \"#utility.yul\":1972:1983   */\n  0x00\n    /* \"#utility.yul\":2009:2012   */\n  dup2\n    /* \"#utility.yul\":1994:2012   */\n  swap1\n  pop\n    /* \"#utility.yul\":1870:2018   */\n  swap3\n  swap2\n  pop\n  pop\n  jump\t// out\n    /* \"#utility.yul\":2024:2329   */\ntag_26:\n    /* \"#utility.yul\":2064:2067   */\n  0x00\n    /* \"#utility.yul\":2083:2103   */\n  tag_97\n    /* \"#utility.yul\":2101:2102   */\n  dup3\n    /* \"#utility.yul\":2083:2103   */\n  tag_98\n  jump\t// in\ntag_97:\n    /* \"#utility.yul\":2078:2103   */\n  swap2\n  pop\n    /* \"#utility.yul\":2117:2137   */\n  tag_99\n    /* \"#utility.yul\":2135:2136   */\n  dup4\n    /* \"#utility.yul\":2117:2137   */\n  tag_98\n  jump\t// in\ntag_99:\n    /* \"#utility.yul\":2112:2137   */\n  swap3\n  pop\n    /* \"#utility.yul\":2271:2272   */\n  dup3\n    /* \"#utility.yul\":2203:2269   */\n  0xffffffffffffffffffffffffffffffffffffffffffffffffffffffffffffffff\n    /* \"#utility.yul\":2199:2273   */\n  sub\n    /* \"#utility.yul\":2196:2197   */\n  dup3\n    /* \"#utility.yul\":2193:2274   */\n  gt\n    /* \"#utility.yul\":2190:2297   */\n  iszero\n  tag_100\n  jumpi\n    /* \"#utility.yul\":2277:2295   */\n  tag_101\n  tag_102\n  jump\t// in\ntag_101:\n    /* \"#utility.yul\":2190:2297   */\ntag_100:\n    /* \"#utility.yul\":2321:2322   */\n  dup3\n    /* \"#utility.yul\":2318:2319   */\n  dup3\n    /* \"#utility.yul\":2314:2323   */\n  add\n    /* \"#utility.yul\":2307:2323   */\n  swap1\n  pop\n    /* \"#utility.yul\":2024:2329   */\n  swap3\n  swap2\n  pop\n  pop\n  jump\t// out\n    /* \"#utility.yul\":2335:2520   */\ntag_41:\n    /* \"#utility.yul\":2375:2376   */\n  0x00\n    /* \"#utility.yul\":2392:2412   */\n  tag_104\n    /* \"#utility.yul\":2410:2411   */\n  dup3\n    /* \"#utility.yul\":2392:2412   */\n  tag_98\n  jump\t// in\ntag_104:\n    /* \"#utility.yul\":2387:2412   */\n  swap2\n  pop\n    /* \"#utility.yul\":2426:2446   */\n  tag_105\n    /* \"#utility.yul\":2444:2445   */\n  dup4\n    /* \"#utility.yul\":2426:2446   */\n  tag_98\n  jump\t// in\ntag_105:\n    /* \"#utility.yul\":2421:2446   */\n  swap3\n  pop\n    /* \"#utility.yul\":2465:2466   */\n  dup3\n    /* \"#utility.yul\":2455:2490   */\n  tag_106\n  jumpi\n    /* \"#utility.yul\":2470:2488   */\n  tag_107\n  tag_108\n  jump\t// in\ntag_107:\n    /* \"#utility.yul\":2455:2490   */\ntag_106:\n    /* \"#utility.yul\":2512:2513   */\n  dup3\n    /* \"#utility.yul\":2509:2510   */\n  dup3\n    /* \"#utility.yul\":2505:2514   */\n  div\n    /* \"#utility.yul\":2500:2514   */\n  swap1\n  pop\n    /* \"#utility.yul\":2335:2520   */\n  swap3\n  swap2\n  pop\n  pop\n  jump\t// out\n    /* \"#utility.yul\":2526:2717   */\ntag_24:\n    /* \"#utility.yul\":2566:2570   */\n  0x00\n    /* \"#utility.yul\":2586:2606   */\n  tag_110\n    /* \"#utility.yul\":2604:2605   */\n  dup3\n    /* \"#utility.yul\":2586:2606   */\n  tag_98\n  jump\t// in\ntag_110:\n    /* \"#utility.yul\":2581:2606   */\n  swap2\n  pop\n    /* \"#utility.yul\":2620:2640   */\n  tag_111\n    /* \"#utility.yul\":2638:2639   */\n  dup4\n    /* \"#utility.yul\":2620:2640   */\n  tag_98\n  jump\t// in\ntag_111:\n    /* \"#utility.yul\":2615:2640   */\n  swap3\n  pop\n    /* \"#utility.yul\":2659:2660   */\n  dup3\n    /* \"#utility.yul\":2656:2657   */\n  dup3\n    /* \"#utility.yul\":2653:2661   */\n  lt\n    /* \"#utility.yul\":2650:2684   */\n  iszero\n  tag_112\n  jumpi\n    /* \"#utility.yul\":2664:2682   */\n  tag_113\n  tag_102\n  jump\t// in\ntag_113:\n    /* \"#utility.yul\":2650:2684   */\ntag_112:\n    /* \"#utility.yul\":2709:2710   */\n  dup3\n    /* \"#utility.yul\":2706:2707   */\n  dup3\n    /* \"#utility.yul\":2702:2711   */\n  sub\n    /* \"#utility.yul\":2694:2711   */\n  swap1\n  pop\n    /* \"#utility.yul\":2526:2717   */\n  swap3\n  swap2\n  pop\n  pop\n  jump\t// out\n    /* \"#utility.yul\":2723:2800   */\ntag_74:\n    /* \"#utility.yul\":2760:2767   */\n  0x00\n    /* \"#utility.yul\":2789:2794   */\n  dup2\n    /* \"#utility.yul\":2778:2794   */\n  swap1\n  pop\n    /* \"#utility.yul\":2723:2800   */\n  swap2\n  swap1\n  pop\n  jump\t// out\n    /* \"#utility.yul\":2806:2883   */\ntag_98:\n    /* \"#utility.yul\":2843:2850   */\n  0x00\n    /* \"#utility.yul\":2872:2877   */\n  dup2\n    /* \"#utility.yul\":2861:2877   */\n  swap1\n  pop\n    /* \"#utility.yul\":2806:2883   */\n  swap2\n  swap1\n  pop\n  jump\t// out\n    /* \"#utility.yul\":2889:3209   */\ntag_51:\n    /* \"#utility.yul\":2933:2939   */\n  0x00\n    /* \"#utility.yul\":2970:2971   */\n  0x02\n    /* \"#utility.yul\":2964:2968   */\n  dup3\n    /* \"#utility.yul\":2960:2972   */\n  div\n    /* \"#utility.yul\":2950:2972   */\n  swap1\n  pop\n    /* \"#utility.yul\":3017:3018   */\n  0x01\n    /* \"#utility.yul\":3011:3015   */\n  dup3\n    /* \"#utility.yul\":3007:3019   */\n  and\n    /* \"#utility.yul\":3038:3056   */\n  dup1\n    /* \"#utility.yul\":3028:3109   */\n  tag_117\n  jumpi\n    /* \"#utility.yul\":3094:3098   */\n  0x7f\n    /* \"#utility.yul\":3086:3092   */\n  dup3\n    /* \"#utility.yul\":3082:3099   */\n  and\n    /* \"#utility.yul\":3072:3099   */\n  swap2\n  pop\n    /* \"#utility.yul\":3028:3109   */\ntag_117:\n    /* \"#utility.yul\":3156:3158   */\n  0x20\n    /* \"#utility.yul\":3148:3154   */\n  dup3\n    /* \"#utility.yul\":3145:3159   */\n  lt\n    /* \"#utility.yul\":3125:3143   */\n  dup2\n    /* \"#utility.yul\":3122:3160   */\n  eq\n    /* \"#utility.yul\":3119:3203   */\n  iszero\n  tag_118\n  jumpi\n    /* \"#utility.yul\":3175:3193   */\n  tag_119\n  tag_120\n  jump\t// in\ntag_119:\n    /* \"#utility.yul\":3119:3203   */\ntag_118:\n    /* \"#utility.yul\":2940:3209   */\n  pop\n    /* \"#utility.yul\":2889:3209   */\n  swap2\n  swap1\n  pop\n  jump\t// out\n    /* \"#utility.yul\":3215:3448   */\ntag_17:\n    /* \"#utility.yul\":3254:3257   */\n  0x00\n    /* \"#utility.yul\":3277:3301   */\n  tag_122\n    /* \"#utility.yul\":3295:3300   */\n  dup3\n    /* \"#utility.yul\":3277:3301   */\n  tag_98\n  jump\t// in\ntag_122:\n    /* \"#utility.yul\":3268:3301   */\n  swap2\n  pop\n    /* \"#utility.yul\":3323:3389   */\n  0xffffffffffffffffffffffffffffffffffffffffffffffffffffffffffffffff\n    /* \"#utility.yul\":3316:3321   */\n  dup3\n    /* \"#utility.yul\":3313:3390   */\n  eq\n    /* \"#utility.yul\":3310:3413   */\n  iszero\n  tag_123\n  jumpi\n    /* \"#utility.yul\":3393:3411   */\n  tag_124\n  tag_102\n  jump\t// in\ntag_124:\n    /* \"#utility.yul\":3310:3413   */\ntag_123:\n    /* \"#utility.yul\":3440:3441   */\n  0x01\n    /* \"#utility.yul\":3433:3438   */\n  dup3\n    /* \"#utility.yul\":3429:3442   */\n  add\n    /* \"#utility.yul\":3422:3442   */\n  swap1\n  pop\n    /* \"#utility.yul\":3215:3448   */\n  swap2\n  swap1\n  pop\n  jump\t// out\n    /* \"#utility.yul\":3454:3533   */\ntag_75:\n    /* \"#utility.yul\":3493:3500   */\n  0x00\n    /* \"#utility.yul\":3522:3527   */\n  dup2\n    /* \"#utility.yul\":3511:3527   */\n  swap1\n  pop\n    /* \"#utility.yul\":3454:3533   */\n  swap2\n  swap1\n  pop\n  jump\t// out\n    /* \"#utility.yul\":3539:3719   */\ntag_102:\n    /* \"#utility.yul\":3587:3664   */\n  0x4e487b7100000000000000000000000000000000000000000000000000000000\n    /* \"#utility.yul\":3584:3585   */\n  0x00\n    /* \"#utility.yul\":3577:3665   */\n  mstore\n    /* \"#utility.yul\":3684:3688   */\n  0x11\n    /* \"#utility.yul\":3681:3682   */\n  0x04\n    /* \"#utility.yul\":3674:3689   */\n  mstore\n    /* \"#utility.yul\":3708:3712   */\n  0x24\n    /* \"#utility.yul\":3705:3706   */\n  0x00\n    /* \"#utility.yul\":3698:3713   */\n  revert\n    /* \"#utility.yul\":3725:3905   */\ntag_108:\n    /* \"#utility.yul\":3773:3850   */\n  0x4e487b7100000000000000000000000000000000000000000000000000000000\n    /* \"#utility.yul\":3770:3771   */\n  0x00\n    /* \"#utility.yul\":3763:3851   */\n  mstore\n    /* \"#utility.yul\":3870:3874   */\n  0x12\n    /* \"#utility.yul\":3867:3868   */\n  0x04\n    /* \"#utility.yul\":3860:3875   */\n  mstore\n    /* \"#utility.yul\":3894:3898   */\n  0x24\n    /* \"#utility.yul\":3891:3892   */\n  0x00\n    /* \"#utility.yul\":3884:3899   */\n  revert\n    /* \"#utility.yul\":3911:4091   */\ntag_120:\n    /* \"#utility.yul\":3959:4036   */\n  0x4e487b7100000000000000000000000000000000000000000000000000000000\n    /* \"#utility.yul\":3956:3957   */\n  0x00\n    /* \"#utility.yul\":3949:4037   */\n  mstore\n    /* \"#utility.yul\":4056:4060   */\n  0x22\n    /* \"#utility.yul\":4053:4054   */\n  0x04\n    /* \"#utility.yul\":4046:4061   */\n  mstore\n    /* \"#utility.yul\":4080:4084   */\n  0x24\n    /* \"#utility.yul\":4077:4078   */\n  0x00\n    /* \"#utility.yul\":4070:4085   */\n  revert\n    /* \"#utility.yul\":4097:4277   */\ntag_11:\n    /* \"#utility.yul\":4145:4222   */\n  0x4e487b7100000000000000000000000000000000000000000000000000000000\n    /* \"#utility.yul\":4142:4143   */\n  0x00\n    /* \"#utility.yul\":4135:4223   */\n  mstore\n    /* \"#utility.yul\":4242:4246   */\n  0x32\n    /* \"#utility.yul\":4239:4240   */\n  0x04\n    /* \"#utility.yul\":4232:4247   */\n  mstore\n    /* \"#utility.yul\":4266:4270   */\n  0x24\n    /* \"#utility.yul\":4263:4264   */\n  0x00\n    /* \"#utility.yul\":4256:4271   */\n  revert\n    /* \"merkle_tree/_MerkleTree.sol\":62:1261  contract Tree {... */\ntag_42:\n  dataSize(sub_0)\n  dup1\n  dataOffset(sub_0)\n  0x00\n  codecopy\n  0x00\n  return\nstop\n\nsub_0: assembly {\n        /* \"merkle_tree/_MerkleTree.sol\":62:1261  contract Tree {... */\n      mstore(0x40, 0x80)\n      callvalue\n      dup1\n      iszero\n      tag_1\n      jumpi\n      0x00\n      dup1\n      revert\n    tag_1:\n      pop\n      jumpi(tag_2, lt(calldatasize, 0x04))\n      shr(0xe0, calldataload(0x00))\n      dup1\n      0x501895ae\n      eq\n      tag_3\n      jumpi\n      dup1\n      0x5ca1e165\n      eq\n      tag_4\n      jumpi\n      dup1\n      0x9f49493b\n      eq\n      tag_5\n      jumpi\n    tag_2:\n      0x00\n      dup1\n      revert\n        /* \"merkle_tree/_MerkleTree.sol\":82:105  bytes32[] public hashes */\n    tag_3:\n      tag_6\n      0x04\n      dup1\n      calldatasize\n      sub\n      dup2\n      add\n      swap1\n      tag_7\n      swap2\n      swap1\n      tag_8\n      jump\t// in\n    tag_7:\n      tag_9\n      jump\t// in\n    tag_6:\n      mload(0x40)\n      tag_10\n      swap2\n      swap1\n      tag_11\n      jump\t// in\n    tag_10:\n      mload(0x40)\n      dup1\n      swap2\n      sub\n      swap1\n      return\n        /* \"merkle_tree/_MerkleTree.sol\":646:742  function getRoot() public view returns(bytes32){... */\n    tag_4:\n      tag_12\n      tag_13\n      jump\t// in\n    tag_12:\n      mload(0x40)\n      tag_14\n      swap2\n      swap1\n      tag_11\n      jump\t// in\n    tag_14:\n      mload(0x40)\n      dup1\n      swap2\n      sub\n      swap1\n      return\n        /* \"merkle_tree/_MerkleTree.sol\":747:1259  function verify(bytes32 root, bytes32 leaf, uint index,bytes32[] memory proof) public pure returns(bool){... */\n    tag_5:\n      tag_15\n      0x04\n      dup1\n      calldatasize\n      sub\n      dup2\n      add\n      swap1\n      tag_16\n      swap2\n      swap1\n      tag_17\n      jump\t// in\n    tag_16:\n      tag_18\n      jump\t// in\n    tag_15:\n      mload(0x40)\n      tag_19\n      swap2\n      swap1\n      tag_20\n      jump\t// in\n    tag_19:\n      mload(0x40)\n      dup1\n      swap2\n      sub\n      swap1\n      return\n        /* \"merkle_tree/_MerkleTree.sol\":82:105  bytes32[] public hashes */\n    tag_9:\n      0x00\n      dup2\n      dup2\n      sload\n      dup2\n      lt\n      tag_21\n      jumpi\n      0x00\n      dup1\n      revert\n    tag_21:\n      swap1\n      0x00\n      mstore\n      keccak256(0x00, 0x20)\n      add\n      0x00\n      swap2\n      pop\n      swap1\n      pop\n      sload\n      dup2\n      jump\t// out\n        /* \"merkle_tree/_MerkleTree.sol\":646:742  function getRoot() public view returns(bytes32){... */\n    tag_13:\n        /* \"merkle_tree/_MerkleTree.sol\":685:692  bytes32 */\n      0x00\n        /* \"merkle_tree/_MerkleTree.sol\":710:716  hashes */\n      dup1\n        /* \"merkle_tree/_MerkleTree.sol\":733:734  1 */\n      0x01\n        /* \"merkle_tree/_MerkleTree.sol\":717:723  hashes */\n      0x00\n        /* \"merkle_tree/_MerkleTree.sol\":717:730  hashes.length */\n      dup1\n      sload\n      swap1\n      pop\n        /* \"merkle_tree/_MerkleTree.sol\":717:734  hashes.length - 1 */\n      tag_24\n      swap2\n      swap1\n      tag_25\n      jump\t// in\n    tag_24:\n        /* \"merkle_tree/_MerkleTree.sol\":710:735  hashes[hashes.length - 1] */\n      dup2\n      sload\n      dup2\n      lt\n      tag_26\n      jumpi\n      tag_27\n      tag_28\n      jump\t// in\n    tag_27:\n    tag_26:\n      swap1\n      0x00\n      mstore\n      keccak256(0x00, 0x20)\n      add\n      sload\n        /* \"merkle_tree/_MerkleTree.sol\":703:735  return hashes[hashes.length - 1] */\n      swap1\n      pop\n        /* \"merkle_tree/_MerkleTree.sol\":646:742  function getRoot() public view returns(bytes32){... */\n      swap1\n      jump\t// out\n        /* \"merkle_tree/_MerkleTree.sol\":747:1259  function verify(bytes32 root, bytes32 leaf, uint index,bytes32[] memory proof) public pure returns(bool){... */\n    tag_18:\n        /* \"merkle_tree/_MerkleTree.sol\":846:850  bool */\n      0x00\n        /* \"merkle_tree/_MerkleTree.sol\":861:873  bytes32 hash */\n      dup1\n        /* \"merkle_tree/_MerkleTree.sol\":876:880  leaf */\n      dup5\n        /* \"merkle_tree/_MerkleTree.sol\":861:880  bytes32 hash = leaf */\n      swap1\n      pop\n        /* \"merkle_tree/_MerkleTree.sol\":895:901  uint i */\n      0x00\n        /* \"merkle_tree/_MerkleTree.sol\":890:1224  for (uint i = 0; i < proof.length; i++){... */\n    tag_31:\n        /* \"merkle_tree/_MerkleTree.sol\":911:916  proof */\n      dup4\n        /* \"merkle_tree/_MerkleTree.sol\":911:923  proof.length */\n      mload\n        /* \"merkle_tree/_MerkleTree.sol\":907:908  i */\n      dup2\n        /* \"merkle_tree/_MerkleTree.sol\":907:923  i < proof.length */\n      lt\n        /* \"merkle_tree/_MerkleTree.sol\":890:1224  for (uint i = 0; i < proof.length; i++){... */\n      iszero\n      tag_32\n      jumpi\n        /* \"merkle_tree/_MerkleTree.sol\":943:958  bytes32 proofEl */\n      0x00\n        /* \"merkle_tree/_MerkleTree.sol\":961:966  proof */\n      dup5\n        /* \"merkle_tree/_MerkleTree.sol\":967:968  i */\n      dup3\n        /* \"merkle_tree/_MerkleTree.sol\":961:969  proof[i] */\n      dup2\n      mload\n      dup2\n      lt\n      tag_34\n      jumpi\n      tag_35\n      tag_28\n      jump\t// in\n    tag_35:\n    tag_34:\n      0x20\n      mul\n      0x20\n      add\n      add\n      mload\n        /* \"merkle_tree/_MerkleTree.sol\":943:969  bytes32 proofEl = proof[i] */\n      swap1\n      pop\n        /* \"merkle_tree/_MerkleTree.sol\":1000:1001  0 */\n      0x00\n        /* \"merkle_tree/_MerkleTree.sol\":995:996  2 */\n      0x02\n        /* \"merkle_tree/_MerkleTree.sol\":987:992  index */\n      dup8\n        /* \"merkle_tree/_MerkleTree.sol\":987:996  index % 2 */\n      tag_36\n      swap2\n      swap1\n      tag_37\n      jump\t// in\n    tag_36:\n        /* \"merkle_tree/_MerkleTree.sol\":987:1001  index % 2 == 0 */\n      eq\n        /* \"merkle_tree/_MerkleTree.sol\":983:1183  if (index % 2 == 0) {... */\n      iszero\n      tag_38\n      jumpi\n        /* \"merkle_tree/_MerkleTree.sol\":1055:1059  hash */\n      dup3\n        /* \"merkle_tree/_MerkleTree.sol\":1060:1067  proofEl */\n      dup2\n        /* \"merkle_tree/_MerkleTree.sol\":1038:1068  abi.encodePacked(hash,proofEl) */\n      add(0x20, mload(0x40))\n      tag_39\n      swap3\n      swap2\n      swap1\n      tag_40\n      jump\t// in\n    tag_39:\n      mload(0x40)\n      0x20\n      dup2\n      dup4\n      sub\n      sub\n      dup2\n      mstore\n      swap1\n      0x40\n      mstore\n        /* \"merkle_tree/_MerkleTree.sol\":1028:1069  keccak256(abi.encodePacked(hash,proofEl)) */\n      dup1\n      mload\n      swap1\n      0x20\n      add\n      keccak256\n        /* \"merkle_tree/_MerkleTree.sol\":1021:1069  hash = keccak256(abi.encodePacked(hash,proofEl)) */\n      swap3\n      pop\n        /* \"merkle_tree/_MerkleTree.sol\":983:1183  if (index % 2 == 0) {... */\n      jump(tag_41)\n    tag_38:\n        /* \"merkle_tree/_MerkleTree.sol\":1154:1161  proofEl */\n      dup1\n        /* \"merkle_tree/_MerkleTree.sol\":1162:1166  hash */\n      dup4\n        /* \"merkle_tree/_MerkleTree.sol\":1137:1167  abi.encodePacked(proofEl,hash) */\n      add(0x20, mload(0x40))\n      tag_42\n      swap3\n      swap2\n      swap1\n      tag_40\n      jump\t// in\n    tag_42:\n      mload(0x40)\n      0x20\n      dup2\n      dup4\n      sub\n      sub\n      dup2\n      mstore\n      swap1\n      0x40\n      mstore\n        /* \"merkle_tree/_MerkleTree.sol\":1127:1168  keccak256(abi.encodePacked(proofEl,hash)) */\n      dup1\n      mload\n      swap1\n      0x20\n      add\n      keccak256\n        /* \"merkle_tree/_MerkleTree.sol\":1120:1168  hash = keccak256(abi.encodePacked(proofEl,hash)) */\n      swap3\n      pop\n        /* \"merkle_tree/_MerkleTree.sol\":983:1183  if (index % 2 == 0) {... */\n    tag_41:\n        /* \"merkle_tree/_MerkleTree.sol\":1212:1213  2 */\n      0x02\n        /* \"merkle_tree/_MerkleTree.sol\":1204:1209  index */\n      dup7\n        /* \"merkle_tree/_MerkleTree.sol\":1204:1213  index / 2 */\n      tag_43\n      swap2\n      swap1\n      tag_44\n      jump\t// in\n    tag_43:\n        /* \"merkle_tree/_MerkleTree.sol\":1196:1213  index = index / 2 */\n      swap6\n      pop\n        /* \"merkle_tree/_MerkleTree.sol\":929:1224  {... */\n      pop\n        /* \"merkle_tree/_MerkleTree.sol\":925:928  i++ */\n      dup1\n      dup1\n      tag_45\n      swap1\n      tag_46\n      jump\t// in\n    tag_45:\n      swap2\n      pop\n      pop\n        /* \"merkle_tree/_MerkleTree.sol\":890:1224  for (uint i = 0; i < proof.length; i++){... */\n      jump(tag_31)\n    tag_32:\n      pop\n        /* \"merkle_tree/_MerkleTree.sol\":1248:1252  root */\n      dup6\n        /* \"merkle_tree/_MerkleTree.sol\":1240:1244  hash */\n      dup2\n        /* \"merkle_tree/_MerkleTree.sol\":1240:1252  hash == root */\n      eq\n        /* \"merkle_tree/_MerkleTree.sol\":1233:1252  return hash == root */\n      swap2\n      pop\n      pop\n        /* \"merkle_tree/_MerkleTree.sol\":747:1259  function verify(bytes32 root, bytes32 leaf, uint index,bytes32[] memory proof) public pure returns(bool){... */\n      swap5\n      swap4\n      pop\n      pop\n      pop\n      pop\n      jump\t// out\n        /* \"#utility.yul\":24:746   */\n    tag_48:\n        /* \"#utility.yul\":120:125   */\n      0x00\n        /* \"#utility.yul\":145:226   */\n      tag_50\n        /* \"#utility.yul\":161:225   */\n      tag_51\n        /* \"#utility.yul\":218:224   */\n      dup5\n        /* \"#utility.yul\":161:225   */\n      tag_52\n      jump\t// in\n    tag_51:\n        /* \"#utility.yul\":145:226   */\n      tag_53\n      jump\t// in\n    tag_50:\n        /* \"#utility.yul\":136:226   */\n      swap1\n      pop\n        /* \"#utility.yul\":246:251   */\n      dup1\n        /* \"#utility.yul\":275:281   */\n      dup4\n        /* \"#utility.yul\":268:273   */\n      dup3\n        /* \"#utility.yul\":261:282   */\n      mstore\n        /* \"#utility.yul\":309:313   */\n      0x20\n        /* \"#utility.yul\":302:307   */\n      dup3\n        /* \"#utility.yul\":298:314   */\n      add\n        /* \"#utility.yul\":291:314   */\n      swap1\n      pop\n        /* \"#utility.yul\":335:341   */\n      dup3\n        /* \"#utility.yul\":385:388   */\n      dup6\n        /* \"#utility.yul\":377:381   */\n      0x20\n        /* \"#utility.yul\":369:375   */\n      dup7\n        /* \"#utility.yul\":365:382   */\n      mul\n        /* \"#utility.yul\":360:363   */\n      dup3\n        /* \"#utility.yul\":356:383   */\n      add\n        /* \"#utility.yul\":353:389   */\n      gt\n        /* \"#utility.yul\":350:493   */\n      iszero\n      tag_54\n      jumpi\n        /* \"#utility.yul\":404:483   */\n      tag_55\n      tag_56\n      jump\t// in\n    tag_55:\n        /* \"#utility.yul\":350:493   */\n    tag_54:\n        /* \"#utility.yul\":517:518   */\n      0x00\n        /* \"#utility.yul\":502:740   */\n    tag_57:\n        /* \"#utility.yul\":527:533   */\n      dup6\n        /* \"#utility.yul\":524:525   */\n      dup2\n        /* \"#utility.yul\":521:534   */\n      lt\n        /* \"#utility.yul\":502:740   */\n      iszero\n      tag_59\n      jumpi\n        /* \"#utility.yul\":595:598   */\n      dup2\n        /* \"#utility.yul\":624:661   */\n      tag_60\n        /* \"#utility.yul\":657:660   */\n      dup9\n        /* \"#utility.yul\":645:655   */\n      dup3\n        /* \"#utility.yul\":624:661   */\n      tag_61\n      jump\t// in\n    tag_60:\n        /* \"#utility.yul\":619:622   */\n      dup5\n        /* \"#utility.yul\":612:662   */\n      mstore\n        /* \"#utility.yul\":691:695   */\n      0x20\n        /* \"#utility.yul\":686:689   */\n      dup5\n        /* \"#utility.yul\":682:696   */\n      add\n        /* \"#utility.yul\":675:696   */\n      swap4\n      pop\n        /* \"#utility.yul\":725:729   */\n      0x20\n        /* \"#utility.yul\":720:723   */\n      dup4\n        /* \"#utility.yul\":716:730   */\n      add\n        /* \"#utility.yul\":709:730   */\n      swap3\n      pop\n        /* \"#utility.yul\":562:740   */\n      pop\n        /* \"#utility.yul\":549:550   */\n      0x01\n        /* \"#utility.yul\":546:547   */\n      dup2\n        /* \"#utility.yul\":542:551   */\n      add\n        /* \"#utility.yul\":537:551   */\n      swap1\n      pop\n        /* \"#utility.yul\":502:740   */\n      jump(tag_57)\n    tag_59:\n        /* \"#utility.yul\":506:520   */\n      pop\n        /* \"#utility.yul\":126:746   */\n      pop\n      pop\n        /* \"#utility.yul\":24:746   */\n      swap4\n      swap3\n      pop\n      pop\n      pop\n      jump\t// out\n        /* \"#utility.yul\":769:1139   */\n    tag_62:\n        /* \"#utility.yul\":840:845   */\n      0x00\n        /* \"#utility.yul\":889:892   */\n      dup3\n        /* \"#utility.yul\":882:886   */\n      0x1f\n        /* \"#utility.yul\":874:880   */\n      dup4\n        /* \"#utility.yul\":870:887   */\n      add\n        /* \"#utility.yul\":866:893   */\n      slt\n        /* \"#utility.yul\":856:978   */\n      tag_64\n      jumpi\n        /* \"#utility.yul\":897:976   */\n      tag_65\n      tag_66\n      jump\t// in\n    tag_65:\n        /* \"#utility.yul\":856:978   */\n    tag_64:\n        /* \"#utility.yul\":1014:1020   */\n      dup2\n        /* \"#utility.yul\":1001:1021   */\n      calldataload\n        /* \"#utility.yul\":1039:1133   */\n      tag_67\n        /* \"#utility.yul\":1129:1132   */\n      dup5\n        /* \"#utility.yul\":1121:1127   */\n      dup3\n        /* \"#utility.yul\":1114:1118   */\n      0x20\n        /* \"#utility.yul\":1106:1112   */\n      dup7\n        /* \"#utility.yul\":1102:1119   */\n      add\n        /* \"#utility.yul\":1039:1133   */\n      tag_48\n      jump\t// in\n    tag_67:\n        /* \"#utility.yul\":1030:1133   */\n      swap2\n      pop\n        /* \"#utility.yul\":846:1139   */\n      pop\n        /* \"#utility.yul\":769:1139   */\n      swap3\n      swap2\n      pop\n      pop\n      jump\t// out\n        /* \"#utility.yul\":1145:1284   */\n    tag_61:\n        /* \"#utility.yul\":1191:1196   */\n      0x00\n        /* \"#utility.yul\":1229:1235   */\n      dup2\n        /* \"#utility.yul\":1216:1236   */\n      calldataload\n        /* \"#utility.yul\":1207:1236   */\n      swap1\n      pop\n        /* \"#utility.yul\":1245:1278   */\n      tag_69\n        /* \"#utility.yul\":1272:1277   */\n      dup2\n        /* \"#utility.yul\":1245:1278   */\n      tag_70\n      jump\t// in\n    tag_69:\n        /* \"#utility.yul\":1145:1284   */\n      swap3\n      swap2\n      pop\n      pop\n      jump\t// out\n        /* \"#utility.yul\":1290:1429   */\n    tag_71:\n        /* \"#utility.yul\":1336:1341   */\n      0x00\n        /* \"#utility.yul\":1374:1380   */\n      dup2\n        /* \"#utility.yul\":1361:1381   */\n      calldataload\n        /* \"#utility.yul\":1352:1381   */\n      swap1\n      pop\n        /* \"#utility.yul\":1390:1423   */\n      tag_73\n        /* \"#utility.yul\":1417:1422   */\n      dup2\n        /* \"#utility.yul\":1390:1423   */\n      tag_74\n      jump\t// in\n    tag_73:\n        /* \"#utility.yul\":1290:1429   */\n      swap3\n      swap2\n      pop\n      pop\n      jump\t// out\n        /* \"#utility.yul\":1435:2410   */\n    tag_17:\n        /* \"#utility.yul\":1546:1552   */\n      0x00\n        /* \"#utility.yul\":1554:1560   */\n      dup1\n        /* \"#utility.yul\":1562:1568   */\n      0x00\n        /* \"#utility.yul\":1570:1576   */\n      dup1\n        /* \"#utility.yul\":1619:1622   */\n      0x80\n        /* \"#utility.yul\":1607:1616   */\n      dup6\n        /* \"#utility.yul\":1598:1605   */\n      dup8\n        /* \"#utility.yul\":1594:1617   */\n      sub\n        /* \"#utility.yul\":1590:1623   */\n      slt\n        /* \"#utility.yul\":1587:1707   */\n      iszero\n      tag_76\n      jumpi\n        /* \"#utility.yul\":1626:1705   */\n      tag_77\n      tag_78\n      jump\t// in\n    tag_77:\n        /* \"#utility.yul\":1587:1707   */\n    tag_76:\n        /* \"#utility.yul\":1746:1747   */\n      0x00\n        /* \"#utility.yul\":1771:1824   */\n      tag_79\n        /* \"#utility.yul\":1816:1823   */\n      dup8\n        /* \"#utility.yul\":1807:1813   */\n      dup3\n        /* \"#utility.yul\":1796:1805   */\n      dup9\n        /* \"#utility.yul\":1792:1814   */\n      add\n        /* \"#utility.yul\":1771:1824   */\n      tag_61\n      jump\t// in\n    tag_79:\n        /* \"#utility.yul\":1761:1824   */\n      swap5\n      pop\n        /* \"#utility.yul\":1717:1834   */\n      pop\n        /* \"#utility.yul\":1873:1875   */\n      0x20\n        /* \"#utility.yul\":1899:1952   */\n      tag_80\n        /* \"#utility.yul\":1944:1951   */\n      dup8\n        /* \"#utility.yul\":1935:1941   */\n      dup3\n        /* \"#utility.yul\":1924:1933   */\n      dup9\n        /* \"#utility.yul\":1920:1942   */\n      add\n        /* \"#utility.yul\":1899:1952   */\n      tag_61\n      jump\t// in\n    tag_80:\n        /* \"#utility.yul\":1889:1952   */\n      swap4\n      pop\n        /* \"#utility.yul\":1844:1962   */\n      pop\n        /* \"#utility.yul\":2001:2003   */\n      0x40\n        /* \"#utility.yul\":2027:2080   */\n      tag_81\n        /* \"#utility.yul\":2072:2079   */\n      dup8\n        /* \"#utility.yul\":2063:2069   */\n      dup3\n        /* \"#utility.yul\":2052:2061   */\n      dup9\n        /* \"#utility.yul\":2048:2070   */\n      add\n        /* \"#utility.yul\":2027:2080   */\n      tag_71\n      jump\t// in\n    tag_81:\n        /* \"#utility.yul\":2017:2080   */\n      swap3\n      pop\n        /* \"#utility.yul\":1972:2090   */\n      pop\n        /* \"#utility.yul\":2157:2159   */\n      0x60\n        /* \"#utility.yul\":2146:2155   */\n      dup6\n        /* \"#utility.yul\":2142:2160   */\n      add\n        /* \"#utility.yul\":2129:2161   */\n      calldataload\n        /* \"#utility.yul\":2188:2206   */\n      0xffffffffffffffff\n        /* \"#utility.yul\":2180:2186   */\n      dup2\n        /* \"#utility.yul\":2177:2207   */\n      gt\n        /* \"#utility.yul\":2174:2291   */\n      iszero\n      tag_82\n      jumpi\n        /* \"#utility.yul\":2210:2289   */\n      tag_83\n      tag_84\n      jump\t// in\n    tag_83:\n        /* \"#utility.yul\":2174:2291   */\n    tag_82:\n        /* \"#utility.yul\":2315:2393   */\n      tag_85\n        /* \"#utility.yul\":2385:2392   */\n      dup8\n        /* \"#utility.yul\":2376:2382   */\n      dup3\n        /* \"#utility.yul\":2365:2374   */\n      dup9\n        /* \"#utility.yul\":2361:2383   */\n      add\n        /* \"#utility.yul\":2315:2393   */\n      tag_62\n      jump\t// in\n    tag_85:\n        /* \"#utility.yul\":2305:2393   */\n      swap2\n      pop\n        /* \"#utility.yul\":2100:2403   */\n      pop\n        /* \"#utility.yul\":1435:2410   */\n      swap3\n      swap6\n      swap2\n      swap5\n      pop\n      swap3\n      pop\n      jump\t// out\n        /* \"#utility.yul\":2416:2745   */\n    tag_8:\n        /* \"#utility.yul\":2475:2481   */\n      0x00\n        /* \"#utility.yul\":2524:2526   */\n      0x20\n        /* \"#utility.yul\":2512:2521   */\n      dup3\n        /* \"#utility.yul\":2503:2510   */\n      dup5\n        /* \"#utility.yul\":2499:2522   */\n      sub\n        /* \"#utility.yul\":2495:2527   */\n      slt\n        /* \"#utility.yul\":2492:2611   */\n      iszero\n      tag_87\n      jumpi\n        /* \"#utility.yul\":2530:2609   */\n      tag_88\n      tag_78\n      jump\t// in\n    tag_88:\n        /* \"#utility.yul\":2492:2611   */\n    tag_87:\n        /* \"#utility.yul\":2650:2651   */\n      0x00\n        /* \"#utility.yul\":2675:2728   */\n      tag_89\n        /* \"#utility.yul\":2720:2727   */\n      dup5\n        /* \"#utility.yul\":2711:2717   */\n      dup3\n        /* \"#utility.yul\":2700:2709   */\n      dup6\n        /* \"#utility.yul\":2696:2718   */\n      add\n        /* \"#utility.yul\":2675:2728   */\n      tag_71\n      jump\t// in\n    tag_89:\n        /* \"#utility.yul\":2665:2728   */\n      swap2\n      pop\n        /* \"#utility.yul\":2621:2738   */\n      pop\n        /* \"#utility.yul\":2416:2745   */\n      swap3\n      swap2\n      pop\n      pop\n      jump\t// out\n        /* \"#utility.yul\":2751:2860   */\n    tag_90:\n        /* \"#utility.yul\":2832:2853   */\n      tag_92\n        /* \"#utility.yul\":2847:2852   */\n      dup2\n        /* \"#utility.yul\":2832:2853   */\n      tag_93\n      jump\t// in\n    tag_92:\n        /* \"#utility.yul\":2827:2830   */\n      dup3\n        /* \"#utility.yul\":2820:2854   */\n      mstore\n        /* \"#utility.yul\":2751:2860   */\n      pop\n      pop\n      jump\t// out\n        /* \"#utility.yul\":2866:2984   */\n    tag_94:\n        /* \"#utility.yul\":2953:2977   */\n      tag_96\n        /* \"#utility.yul\":2971:2976   */\n      dup2\n        /* \"#utility.yul\":2953:2977   */\n      tag_97\n      jump\t// in\n    tag_96:\n        /* \"#utility.yul\":2948:2951   */\n      dup3\n        /* \"#utility.yul\":2941:2978   */\n      mstore\n        /* \"#utility.yul\":2866:2984   */\n      pop\n      pop\n      jump\t// out\n        /* \"#utility.yul\":2990:3147   */\n    tag_98:\n        /* \"#utility.yul\":3095:3140   */\n      tag_100\n        /* \"#utility.yul\":3115:3139   */\n      tag_101\n        /* \"#utility.yul\":3133:3138   */\n      dup3\n        /* \"#utility.yul\":3115:3139   */\n      tag_97\n      jump\t// in\n    tag_101:\n        /* \"#utility.yul\":3095:3140   */\n      tag_102\n      jump\t// in\n    tag_100:\n        /* \"#utility.yul\":3090:3093   */\n      dup3\n        /* \"#utility.yul\":3083:3141   */\n      mstore\n        /* \"#utility.yul\":2990:3147   */\n      pop\n      pop\n      jump\t// out\n        /* \"#utility.yul\":3153:3550   */\n    tag_40:\n        /* \"#utility.yul\":3293:3296   */\n      0x00\n        /* \"#utility.yul\":3308:3383   */\n      tag_104\n        /* \"#utility.yul\":3379:3382   */\n      dup3\n        /* \"#utility.yul\":3370:3376   */\n      dup6\n        /* \"#utility.yul\":3308:3383   */\n      tag_98\n      jump\t// in\n    tag_104:\n        /* \"#utility.yul\":3408:3410   */\n      0x20\n        /* \"#utility.yul\":3403:3406   */\n      dup3\n        /* \"#utility.yul\":3399:3411   */\n      add\n        /* \"#utility.yul\":3392:3411   */\n      swap2\n      pop\n        /* \"#utility.yul\":3421:3496   */\n      tag_105\n        /* \"#utility.yul\":3492:3495   */\n      dup3\n        /* \"#utility.yul\":3483:3489   */\n      dup5\n        /* \"#utility.yul\":3421:3496   */\n      tag_98\n      jump\t// in\n    tag_105:\n        /* \"#utility.yul\":3521:3523   */\n      0x20\n        /* \"#utility.yul\":3516:3519   */\n      dup3\n        /* \"#utility.yul\":3512:3524   */\n      add\n        /* \"#utility.yul\":3505:3524   */\n      swap2\n      pop\n        /* \"#utility.yul\":3541:3544   */\n      dup2\n        /* \"#utility.yul\":3534:3544   */\n      swap1\n      pop\n        /* \"#utility.yul\":3153:3550   */\n      swap4\n      swap3\n      pop\n      pop\n      pop\n      jump\t// out\n        /* \"#utility.yul\":3556:3766   */\n    tag_20:\n        /* \"#utility.yul\":3643:3647   */\n      0x00\n        /* \"#utility.yul\":3681:3683   */\n      0x20\n        /* \"#utility.yul\":3670:3679   */\n      dup3\n        /* \"#utility.yul\":3666:3684   */\n      add\n        /* \"#utility.yul\":3658:3684   */\n      swap1\n      pop\n        /* \"#utility.yul\":3694:3759   */\n      tag_107\n        /* \"#utility.yul\":3756:3757   */\n      0x00\n        /* \"#utility.yul\":3745:3754   */\n      dup4\n        /* \"#utility.yul\":3741:3758   */\n      add\n        /* \"#utility.yul\":3732:3738   */\n      dup5\n        /* \"#utility.yul\":3694:3759   */\n      tag_90\n      jump\t// in\n    tag_107:\n        /* \"#utility.yul\":3556:3766   */\n      swap3\n      swap2\n      pop\n      pop\n      jump\t// out\n        /* \"#utility.yul\":3772:3994   */\n    tag_11:\n        /* \"#utility.yul\":3865:3869   */\n      0x00\n        /* \"#utility.yul\":3903:3905   */\n      0x20\n        /* \"#utility.yul\":3892:3901   */\n      dup3\n        /* \"#utility.yul\":3888:3906   */\n      add\n        /* \"#utility.yul\":3880:3906   */\n      swap1\n      pop\n        /* \"#utility.yul\":3916:3987   */\n      tag_109\n        /* \"#utility.yul\":3984:3985   */\n      0x00\n        /* \"#utility.yul\":3973:3982   */\n      dup4\n        /* \"#utility.yul\":3969:3986   */\n      add\n        /* \"#utility.yul\":3960:3966   */\n      dup5\n        /* \"#utility.yul\":3916:3987   */\n      tag_94\n      jump\t// in\n    tag_109:\n        /* \"#utility.yul\":3772:3994   */\n      swap3\n      swap2\n      pop\n      pop\n      jump\t// out\n        /* \"#utility.yul\":4000:4129   */\n    tag_53:\n        /* \"#utility.yul\":4034:4040   */\n      0x00\n        /* \"#utility.yul\":4061:4081   */\n      tag_111\n      tag_112\n      jump\t// in\n    tag_111:\n        /* \"#utility.yul\":4051:4081   */\n      swap1\n      pop\n        /* \"#utility.yul\":4090:4123   */\n      tag_113\n        /* \"#utility.yul\":4118:4122   */\n      dup3\n        /* \"#utility.yul\":4110:4116   */\n      dup3\n        /* \"#utility.yul\":4090:4123   */\n      tag_114\n      jump\t// in\n    tag_113:\n        /* \"#utility.yul\":4000:4129   */\n      swap2\n      swap1\n      pop\n      jump\t// out\n        /* \"#utility.yul\":4135:4210   */\n    tag_112:\n        /* \"#utility.yul\":4168:4174   */\n      0x00\n        /* \"#utility.yul\":4201:4203   */\n      0x40\n        /* \"#utility.yul\":4195:4204   */\n      mload\n        /* \"#utility.yul\":4185:4204   */\n      swap1\n      pop\n        /* \"#utility.yul\":4135:4210   */\n      swap1\n      jump\t// out\n        /* \"#utility.yul\":4216:4527   */\n    tag_52:\n        /* \"#utility.yul\":4293:4297   */\n      0x00\n        /* \"#utility.yul\":4383:4401   */\n      0xffffffffffffffff\n        /* \"#utility.yul\":4375:4381   */\n      dup3\n        /* \"#utility.yul\":4372:4402   */\n      gt\n        /* \"#utility.yul\":4369:4425   */\n      iszero\n      tag_117\n      jumpi\n        /* \"#utility.yul\":4405:4423   */\n      tag_118\n      tag_119\n      jump\t// in\n    tag_118:\n        /* \"#utility.yul\":4369:4425   */\n    tag_117:\n        /* \"#utility.yul\":4455:4459   */\n      0x20\n        /* \"#utility.yul\":4447:4453   */\n      dup3\n        /* \"#utility.yul\":4443:4460   */\n      mul\n        /* \"#utility.yul\":4435:4460   */\n      swap1\n      pop\n        /* \"#utility.yul\":4515:4519   */\n      0x20\n        /* \"#utility.yul\":4509:4513   */\n      dup2\n        /* \"#utility.yul\":4505:4520   */\n      add\n        /* \"#utility.yul\":4497:4520   */\n      swap1\n      pop\n        /* \"#utility.yul\":4216:4527   */\n      swap2\n      swap1\n      pop\n      jump\t// out\n        /* \"#utility.yul\":4533:4718   */\n    tag_44:\n        /* \"#utility.yul\":4573:4574   */\n      0x00\n        /* \"#utility.yul\":4590:4610   */\n      tag_121\n        /* \"#utility.yul\":4608:4609   */\n      dup3\n        /* \"#utility.yul\":4590:4610   */\n      tag_122\n      jump\t// in\n    tag_121:\n        /* \"#utility.yul\":4585:4610   */\n      swap2\n      pop\n        /* \"#utility.yul\":4624:4644   */\n      tag_123\n        /* \"#utility.yul\":4642:4643   */\n      dup4\n        /* \"#utility.yul\":4624:4644   */\n      tag_122\n      jump\t// in\n    tag_123:\n        /* \"#utility.yul\":4619:4644   */\n      swap3\n      pop\n        /* \"#utility.yul\":4663:4664   */\n      dup3\n        /* \"#utility.yul\":4653:4688   */\n      tag_124\n      jumpi\n        /* \"#utility.yul\":4668:4686   */\n      tag_125\n      tag_126\n      jump\t// in\n    tag_125:\n        /* \"#utility.yul\":4653:4688   */\n    tag_124:\n        /* \"#utility.yul\":4710:4711   */\n      dup3\n        /* \"#utility.yul\":4707:4708   */\n      dup3\n        /* \"#utility.yul\":4703:4712   */\n      div\n        /* \"#utility.yul\":4698:4712   */\n      swap1\n      pop\n        /* \"#utility.yul\":4533:4718   */\n      swap3\n      swap2\n      pop\n      pop\n      jump\t// out\n        /* \"#utility.yul\":4724:4915   */\n    tag_25:\n        /* \"#utility.yul\":4764:4768   */\n      0x00\n        /* \"#utility.yul\":4784:4804   */\n      tag_128\n        /* \"#utility.yul\":4802:4803   */\n      dup3\n        /* \"#utility.yul\":4784:4804   */\n      tag_122\n      jump\t// in\n    tag_128:\n        /* \"#utility.yul\":4779:4804   */\n      swap2\n      pop\n        /* \"#utility.yul\":4818:4838   */\n      tag_129\n        /* \"#utility.yul\":4836:4837   */\n      dup4\n        /* \"#utility.yul\":4818:4838   */\n      tag_122\n      jump\t// in\n    tag_129:\n        /* \"#utility.yul\":4813:4838   */\n      swap3\n      pop\n        /* \"#utility.yul\":4857:4858   */\n      dup3\n        /* \"#utility.yul\":4854:4855   */\n      dup3\n        /* \"#utility.yul\":4851:4859   */\n      lt\n        /* \"#utility.yul\":4848:4882   */\n      iszero\n      tag_130\n      jumpi\n        /* \"#utility.yul\":4862:4880   */\n      tag_131\n      tag_132\n      jump\t// in\n    tag_131:\n        /* \"#utility.yul\":4848:4882   */\n    tag_130:\n        /* \"#utility.yul\":4907:4908   */\n      dup3\n        /* \"#utility.yul\":4904:4905   */\n      dup3\n        /* \"#utility.yul\":4900:4909   */\n      sub\n        /* \"#utility.yul\":4892:4909   */\n      swap1\n      pop\n        /* \"#utility.yul\":4724:4915   */\n      swap3\n      swap2\n      pop\n      pop\n      jump\t// out\n        /* \"#utility.yul\":4921:5011   */\n    tag_93:\n        /* \"#utility.yul\":4955:4962   */\n      0x00\n        /* \"#utility.yul\":4998:5003   */\n      dup2\n        /* \"#utility.yul\":4991:5004   */\n      iszero\n        /* \"#utility.yul\":4984:5005   */\n      iszero\n        /* \"#utility.yul\":4973:5005   */\n      swap1\n      pop\n        /* \"#utility.yul\":4921:5011   */\n      swap2\n      swap1\n      pop\n      jump\t// out\n        /* \"#utility.yul\":5017:5094   */\n    tag_97:\n        /* \"#utility.yul\":5054:5061   */\n      0x00\n        /* \"#utility.yul\":5083:5088   */\n      dup2\n        /* \"#utility.yul\":5072:5088   */\n      swap1\n      pop\n        /* \"#utility.yul\":5017:5094   */\n      swap2\n      swap1\n      pop\n      jump\t// out\n        /* \"#utility.yul\":5100:5177   */\n    tag_122:\n        /* \"#utility.yul\":5137:5144   */\n      0x00\n        /* \"#utility.yul\":5166:5171   */\n      dup2\n        /* \"#utility.yul\":5155:5171   */\n      swap1\n      pop\n        /* \"#utility.yul\":5100:5177   */\n      swap2\n      swap1\n      pop\n      jump\t// out\n        /* \"#utility.yul\":5183:5464   */\n    tag_114:\n        /* \"#utility.yul\":5266:5293   */\n      tag_137\n        /* \"#utility.yul\":5288:5292   */\n      dup3\n        /* \"#utility.yul\":5266:5293   */\n      tag_138\n      jump\t// in\n    tag_137:\n        /* \"#utility.yul\":5258:5264   */\n      dup2\n        /* \"#utility.yul\":5254:5294   */\n      add\n        /* \"#utility.yul\":5396:5402   */\n      dup2\n        /* \"#utility.yul\":5384:5394   */\n      dup2\n        /* \"#utility.yul\":5381:5403   */\n      lt\n        /* \"#utility.yul\":5360:5378   */\n      0xffffffffffffffff\n        /* \"#utility.yul\":5348:5358   */\n      dup3\n        /* \"#utility.yul\":5345:5379   */\n      gt\n        /* \"#utility.yul\":5342:5404   */\n      or\n        /* \"#utility.yul\":5339:5427   */\n      iszero\n      tag_139\n      jumpi\n        /* \"#utility.yul\":5407:5425   */\n      tag_140\n      tag_119\n      jump\t// in\n    tag_140:\n        /* \"#utility.yul\":5339:5427   */\n    tag_139:\n        /* \"#utility.yul\":5447:5457   */\n      dup1\n        /* \"#utility.yul\":5443:5445   */\n      0x40\n        /* \"#utility.yul\":5436:5458   */\n      mstore\n        /* \"#utility.yul\":5226:5464   */\n      pop\n        /* \"#utility.yul\":5183:5464   */\n      pop\n      pop\n      jump\t// out\n        /* \"#utility.yul\":5470:5703   */\n    tag_46:\n        /* \"#utility.yul\":5509:5512   */\n      0x00\n        /* \"#utility.yul\":5532:5556   */\n      tag_142\n        /* \"#utility.yul\":5550:5555   */\n      dup3\n        /* \"#utility.yul\":5532:5556   */\n      tag_122\n      jump\t// in\n    tag_142:\n        /* \"#utility.yul\":5523:5556   */\n      swap2\n      pop\n        /* \"#utility.yul\":5578:5644   */\n      0xffffffffffffffffffffffffffffffffffffffffffffffffffffffffffffffff\n        /* \"#utility.yul\":5571:5576   */\n      dup3\n        /* \"#utility.yul\":5568:5645   */\n      eq\n        /* \"#utility.yul\":5565:5668   */\n      iszero\n      tag_143\n      jumpi\n        /* \"#utility.yul\":5648:5666   */\n      tag_144\n      tag_132\n      jump\t// in\n    tag_144:\n        /* \"#utility.yul\":5565:5668   */\n    tag_143:\n        /* \"#utility.yul\":5695:5696   */\n      0x01\n        /* \"#utility.yul\":5688:5693   */\n      dup3\n        /* \"#utility.yul\":5684:5697   */\n      add\n        /* \"#utility.yul\":5677:5697   */\n      swap1\n      pop\n        /* \"#utility.yul\":5470:5703   */\n      swap2\n      swap1\n      pop\n      jump\t// out\n        /* \"#utility.yul\":5709:5788   */\n    tag_102:\n        /* \"#utility.yul\":5748:5755   */\n      0x00\n        /* \"#utility.yul\":5777:5782   */\n      dup2\n        /* \"#utility.yul\":5766:5782   */\n      swap1\n      pop\n        /* \"#utility.yul\":5709:5788   */\n      swap2\n      swap1\n      pop\n      jump\t// out\n        /* \"#utility.yul\":5794:5970   */\n    tag_37:\n        /* \"#utility.yul\":5826:5827   */\n      0x00\n        /* \"#utility.yul\":5843:5863   */\n      tag_147\n        /* \"#utility.yul\":5861:5862   */\n      dup3\n        /* \"#utility.yul\":5843:5863   */\n      tag_122\n      jump\t// in\n    tag_147:\n        /* \"#utility.yul\":5838:5863   */\n      swap2\n      pop\n        /* \"#utility.yul\":5877:5897   */\n      tag_148\n        /* \"#utility.yul\":5895:5896   */\n      dup4\n        /* \"#utility.yul\":5877:5897   */\n      tag_122\n      jump\t// in\n    tag_148:\n        /* \"#utility.yul\":5872:5897   */\n      swap3\n      pop\n        /* \"#utility.yul\":5916:5917   */\n      dup3\n        /* \"#utility.yul\":5906:5941   */\n      tag_149\n      jumpi\n        /* \"#utility.yul\":5921:5939   */\n      tag_150\n      tag_126\n      jump\t// in\n    tag_150:\n        /* \"#utility.yul\":5906:5941   */\n    tag_149:\n        /* \"#utility.yul\":5962:5963   */\n      dup3\n        /* \"#utility.yul\":5959:5960   */\n      dup3\n        /* \"#utility.yul\":5955:5964   */\n      mod\n        /* \"#utility.yul\":5950:5964   */\n      swap1\n      pop\n        /* \"#utility.yul\":5794:5970   */\n      swap3\n      swap2\n      pop\n      pop\n      jump\t// out\n        /* \"#utility.yul\":5976:6156   */\n    tag_132:\n        /* \"#utility.yul\":6024:6101   */\n      0x4e487b7100000000000000000000000000000000000000000000000000000000\n        /* \"#utility.yul\":6021:6022   */\n      0x00\n        /* \"#utility.yul\":6014:6102   */\n      mstore\n        /* \"#utility.yul\":6121:6125   */\n      0x11\n        /* \"#utility.yul\":6118:6119   */\n      0x04\n        /* \"#utility.yul\":6111:6126   */\n      mstore\n        /* \"#utility.yul\":6145:6149   */\n      0x24\n        /* \"#utility.yul\":6142:6143   */\n      0x00\n        /* \"#utility.yul\":6135:6150   */\n      revert\n        /* \"#utility.yul\":6162:6342   */\n    tag_126:\n        /* \"#utility.yul\":6210:6287   */\n      0x4e487b7100000000000000000000000000000000000000000000000000000000\n        /* \"#utility.yul\":6207:6208   */\n      0x00\n        /* \"#utility.yul\":6200:6288   */\n      mstore\n        /* \"#utility.yul\":6307:6311   */\n      0x12\n        /* \"#utility.yul\":6304:6305   */\n      0x04\n        /* \"#utility.yul\":6297:6312   */\n      mstore\n        /* \"#utility.yul\":6331:6335   */\n      0x24\n        /* \"#utility.yul\":6328:6329   */\n      0x00\n        /* \"#utility.yul\":6321:6336   */\n      revert\n        /* \"#utility.yul\":6348:6528   */\n    tag_28:\n        /* \"#utility.yul\":6396:6473   */\n      0x4e487b7100000000000000000000000000000000000000000000000000000000\n        /* \"#utility.yul\":6393:6394   */\n      0x00\n        /* \"#utility.yul\":6386:6474   */\n      mstore\n        /* \"#utility.yul\":6493:6497   */\n      0x32\n        /* \"#utility.yul\":6490:6491   */\n      0x04\n        /* \"#utility.yul\":6483:6498   */\n      mstore\n        /* \"#utility.yul\":6517:6521   */\n      0x24\n        /* \"#utility.yul\":6514:6515   */\n      0x00\n        /* \"#utility.yul\":6507:6522   */\n      revert\n        /* \"#utility.yul\":6534:6714   */\n    tag_119:\n        /* \"#utility.yul\":6582:6659   */\n      0x4e487b7100000000000000000000000000000000000000000000000000000000\n        /* \"#utility.yul\":6579:6580   */\n      0x00\n        /* \"#utility.yul\":6572:6660   */\n      mstore\n        /* \"#utility.yul\":6679:6683   */\n      0x41\n        /* \"#utility.yul\":6676:6677   */\n      0x04\n        /* \"#utility.yul\":6669:6684   */\n      mstore\n        /* \"#utility.yul\":6703:6707   */\n      0x24\n        /* \"#utility.yul\":6700:6701   */\n      0x00\n        /* \"#utility.yul\":6693:6708   */\n      revert\n        /* \"#utility.yul\":6720:6837   */\n    tag_66:\n        /* \"#utility.yul\":6829:6830   */\n      0x00\n        /* \"#utility.yul\":6826:6827   */\n      dup1\n        /* \"#utility.yul\":6819:6831   */\n      revert\n        /* \"#utility.yul\":6843:6960   */\n    tag_56:\n        /* \"#utility.yul\":6952:6953   */\n      0x00\n        /* \"#utility.yul\":6949:6950   */\n      dup1\n        /* \"#utility.yul\":6942:6954   */\n      revert\n        /* \"#utility.yul\":6966:7083   */\n    tag_84:\n        /* \"#utility.yul\":7075:7076   */\n      0x00\n        /* \"#utility.yul\":7072:7073   */\n      dup1\n        /* \"#utility.yul\":7065:7077   */\n      revert\n        /* \"#utility.yul\":7089:7206   */\n    tag_78:\n        /* \"#utility.yul\":7198:7199   */\n      0x00\n        /* \"#utility.yul\":7195:7196   */\n      dup1\n        /* \"#utility.yul\":7188:7200   */\n      revert\n        /* \"#utility.yul\":7212:7314   */\n    tag_138:\n        /* \"#utility.yul\":7253:7259   */\n      0x00\n        /* \"#utility.yul\":7304:7306   */\n      0x1f\n        /* \"#utility.yul\":7300:7307   */\n      not\n        /* \"#utility.yul\":7295:7297   */\n      0x1f\n        /* \"#utility.yul\":7288:7293   */\n      dup4\n        /* \"#utility.yul\":7284:7298   */\n      add\n        /* \"#utility.yul\":7280:7308   */\n      and\n        /* \"#utility.yul\":7270:7308   */\n      swap1\n      pop\n        /* \"#utility.yul\":7212:7314   */\n      swap2\n      swap1\n      pop\n      jump\t// out\n        /* \"#utility.yul\":7320:7442   */\n    tag_70:\n        /* \"#utility.yul\":7393:7417   */\n      tag_161\n        /* \"#utility.yul\":7411:7416   */\n      dup2\n        /* \"#utility.yul\":7393:7417   */\n      tag_97\n      jump\t// in\n    tag_161:\n        /* \"#utility.yul\":7386:7391   */\n      dup2\n        /* \"#utility.yul\":7383:7418   */\n      eq\n        /* \"#utility.yul\":7373:7436   */\n      tag_162\n      jumpi\n        /* \"#utility.yul\":7432:7433   */\n      0x00\n        /* \"#utility.yul\":7429:7430   */\n      dup1\n        /* \"#utility.yul\":7422:7434   */\n      revert\n        /* \"#utility.yul\":7373:7436   */\n    tag_162:\n        /* \"#utility.yul\":7320:7442   */\n      pop\n      jump\t// out\n        /* \"#utility.yul\":7448:7570   */\n    tag_74:\n        /* \"#utility.yul\":7521:7545   */\n      tag_164\n        /* \"#utility.yul\":7539:7544   */\n      dup2\n        /* \"#utility.yul\":7521:7545   */\n      tag_122\n      jump\t// in\n    tag_164:\n        /* \"#utility.yul\":7514:7519   */\n      dup2\n        /* \"#utility.yul\":7511:7546   */\n      eq\n        /* \"#utility.yul\":7501:7564   */\n      tag_165\n      jumpi\n        /* \"#utility.yul\":7560:7561   */\n      0x00\n        /* \"#utility.yul\":7557:7558   */\n      dup1\n        /* \"#utility.yul\":7550:7562   */\n      revert\n        /* \"#utility.yul\":7501:7564   */\n    tag_165:\n        /* \"#utility.yul\":7448:7570   */\n      pop\n      jump\t// out\n\n    auxdata: 0xa26469706673582212205b0881311cc8e39916b67369e7e6e6f627513a161c18909c00ad9ec93dfde9f164736f6c63430008070033\n}\n",
				"bytecode": {
					"linkReferences": {},
					"object": "608060405260405180608001604052806040518060400160405280600381526020017f4c656f000000000000000000000000000000000000000000000000000000000081525081526020016040518060400160405280600381526020017f526166000000000000000000000000000000000000000000000000000000000081525081526020016040518060400160405280600381526020017f446f6e000000000000000000000000000000000000000000000000000000000081525081526020016040518060400160405280600581526020017f4d696b657900000000000000000000000000000000000000000000000000000081525081525060019060046200010b929190620002dc565b503480156200011957600080fd5b5060005b6004811015620001a55760006001826004811062000140576200013f62000762565b5b016040516020016200015391906200052a565b60405160208183030381529060405280519060200120908060018154018082558091505060019003906000526020600020016000909190919091505580806200019c906200067d565b9150506200011d565b5060006004905060005b6000821115620002d45760005b600183620001cb9190620005f8565b811015620002ac576000808383620001e4919062000563565b81548110620001f857620001f762000762565b5b906000526020600020015460006001858562000215919062000563565b62000221919062000563565b8154811062000235576200023462000762565b5b906000526020600020015460405160200162000253929190620004fa565b604051602081830303815290604052805190602001209050600081908060018154018082558091505060019003906000526020600020016000909190919091505550600281620002a4919062000563565b9050620001bc565b508181620002bb919062000563565b9050600282620002cc9190620005c0565b9150620001af565b505062000791565b826004810192821562000323579160200282015b82811115620003225782518290805190602001906200031192919062000336565b5091602001919060010190620002f0565b5b509050620003329190620003c7565b5090565b828054620003449062000647565b90600052602060002090601f016020900481019282620003685760008555620003b4565b82601f106200038357805160ff1916838001178555620003b4565b82800160010185558215620003b4579182015b82811115620003b357825182559160200191906001019062000396565b5b509050620003c39190620003ef565b5090565b5b80821115620003eb5760008181620003e191906200040e565b50600101620003c8565b5090565b5b808211156200040a576000816000905550600101620003f0565b5090565b5080546200041c9062000647565b6000825580601f1062000430575062000451565b601f016020900490600052602060002090810190620004509190620003ef565b5b50565b62000469620004638262000633565b620006cb565b82525050565b600081546200047e8162000647565b6200048a818662000558565b94506001821660008114620004a85760018114620004ba57620004f1565b60ff19831686528186019350620004f1565b620004c58562000543565b60005b83811015620004e957815481890152600182019150602081019050620004c8565b838801955050505b50505092915050565b600062000508828562000454565b6020820191506200051a828462000454565b6020820191508190509392505050565b60006200053882846200046f565b915081905092915050565b60008190508160005260206000209050919050565b600081905092915050565b600062000570826200063d565b91506200057d836200063d565b9250827fffffffffffffffffffffffffffffffffffffffffffffffffffffffffffffffff03821115620005b557620005b4620006d5565b5b828201905092915050565b6000620005cd826200063d565b9150620005da836200063d565b925082620005ed57620005ec62000704565b5b828204905092915050565b600062000605826200063d565b915062000612836200063d565b925082821015620006285762000627620006d5565b5b828203905092915050565b6000819050919050565b6000819050919050565b600060028204905060018216806200066057607f821691505b6020821081141562000677576200067662000733565b5b50919050565b60006200068a826200063d565b91507fffffffffffffffffffffffffffffffffffffffffffffffffffffffffffffffff821415620006c057620006bf620006d5565b5b600182019050919050565b6000819050919050565b7f4e487b7100000000000000000000000000000000000000000000000000000000600052601160045260246000fd5b7f4e487b7100000000000000000000000000000000000000000000000000000000600052601260045260246000fd5b7f4e487b7100000000000000000000000000000000000000000000000000000000600052602260045260246000fd5b7f4e487b7100000000000000000000000000000000000000000000000000000000600052603260045260246000fd5b6106d180620007a16000396000f3fe608060405234801561001057600080fd5b50600436106100415760003560e01c8063501895ae146100465780635ca1e165146100765780639f49493b14610094575b600080fd5b610060600480360381019061005b919061033d565b6100c4565b60405161006d91906103e6565b60405180910390f35b61007e6100e8565b60405161008b91906103e6565b60405180910390f35b6100ae60048036038101906100a991906102ba565b61011e565b6040516100bb91906103cb565b60405180910390f35b600081815481106100d457600080fd5b906000526020600020016000915090505481565b60008060016000805490506100fd9190610483565b8154811061010e5761010d6105ea565b5b9060005260206000200154905090565b60008084905060005b83518110156101e3576000848281518110610145576101446105ea565b5b60200260200101519050600060028761015e919061055b565b141561019457828160405160200161017792919061039f565b6040516020818303038152906040528051906020012092506101c0565b80836040516020016101a792919061039f565b6040516020818303038152906040528051906020012092505b6002866101cd9190610452565b95505080806101db90610508565b915050610127565b50858114915050949350505050565b600061020561020084610426565b610401565b905080838252602082019050828560208602820111156102285761022761064d565b5b60005b85811015610258578161023e8882610290565b84526020840193506020830192505060018101905061022b565b5050509392505050565b600082601f83011261027757610276610648565b5b81356102878482602086016101f2565b91505092915050565b60008135905061029f8161066d565b92915050565b6000813590506102b481610684565b92915050565b600080600080608085870312156102d4576102d3610657565b5b60006102e287828801610290565b94505060206102f387828801610290565b9350506040610304878288016102a5565b925050606085013567ffffffffffffffff81111561032557610324610652565b5b61033187828801610262565b91505092959194509250565b60006020828403121561035357610352610657565b5b6000610361848285016102a5565b91505092915050565b610373816104b7565b82525050565b610382816104c3565b82525050565b610399610394826104c3565b610551565b82525050565b60006103ab8285610388565b6020820191506103bb8284610388565b6020820191508190509392505050565b60006020820190506103e0600083018461036a565b92915050565b60006020820190506103fb6000830184610379565b92915050565b600061040b61041c565b905061041782826104d7565b919050565b6000604051905090565b600067ffffffffffffffff82111561044157610440610619565b5b602082029050602081019050919050565b600061045d826104cd565b9150610468836104cd565b925082610478576104776105bb565b5b828204905092915050565b600061048e826104cd565b9150610499836104cd565b9250828210156104ac576104ab61058c565b5b828203905092915050565b60008115159050919050565b6000819050919050565b6000819050919050565b6104e08261065c565b810181811067ffffffffffffffff821117156104ff576104fe610619565b5b80604052505050565b6000610513826104cd565b91507fffffffffffffffffffffffffffffffffffffffffffffffffffffffffffffffff8214156105465761054561058c565b5b600182019050919050565b6000819050919050565b6000610566826104cd565b9150610571836104cd565b925082610581576105806105bb565b5b828206905092915050565b7f4e487b7100000000000000000000000000000000000000000000000000000000600052601160045260246000fd5b7f4e487b7100000000000000000000000000000000000000000000000000000000600052601260045260246000fd5b7f4e487b7100000000000000000000000000000000000000000000000000000000600052603260045260246000fd5b7f4e487b7100000000000000000000000000000000000000000000000000000000600052604160045260246000fd5b600080fd5b600080fd5b600080fd5b600080fd5b6000601f19601f8301169050919050565b610676816104c3565b811461068157600080fd5b50565b61068d816104cd565b811461069857600080fd5b5056fea26469706673582212205b0881311cc8e39916b67369e7e6e6f627513a161c18909c00ad9ec93dfde9f164736f6c63430008070033",
					"opcodes": "PUSH1 0x80 PUSH1 0x40 MSTORE PUSH1 0x40 MLOAD DUP1 PUSH1 0x80 ADD PUSH1 0x40 MSTORE DUP1 PUSH1 0x40 MLOAD DUP1 PUSH1 0x40 ADD PUSH1 0x40 MSTORE DUP1 PUSH1 0x3 DUP2 MSTORE PUSH1 0x20 ADD PUSH32 0x4C656F0000000000000000000000000000000000000000000000000000000000 DUP2 MSTORE POP DUP2 MSTORE PUSH1 0x20 ADD PUSH1 0x40 MLOAD DUP1 PUSH1 0x40 ADD PUSH1 0x40 MSTORE DUP1 PUSH1 0x3 DUP2 MSTORE PUSH1 0x20 ADD PUSH32 0x5261660000000000000000000000000000000000000000000000000000000000 DUP2 MSTORE POP DUP2 MSTORE PUSH1 0x20 ADD PUSH1 0x40 MLOAD DUP1 PUSH1 0x40 ADD PUSH1 0x40 MSTORE DUP1 PUSH1 0x3 DUP2 MSTORE PUSH1 0x20 ADD PUSH32 0x446F6E0000000000000000000000000000000000000000000000000000000000 DUP2 MSTORE POP DUP2 MSTORE PUSH1 0x20 ADD PUSH1 0x40 MLOAD DUP1 PUSH1 0x40 ADD PUSH1 0x40 MSTORE DUP1 PUSH1 0x5 DUP2 MSTORE PUSH1 0x20 ADD PUSH32 0x4D696B6579000000000000000000000000000000000000000000000000000000 DUP2 MSTORE POP DUP2 MSTORE POP PUSH1 0x1 SWAP1 PUSH1 0x4 PUSH3 0x10B SWAP3 SWAP2 SWAP1 PUSH3 0x2DC JUMP JUMPDEST POP CALLVALUE DUP1 ISZERO PUSH3 0x119 JUMPI PUSH1 0x0 DUP1 REVERT JUMPDEST POP PUSH1 0x0 JUMPDEST PUSH1 0x4 DUP2 LT ISZERO PUSH3 0x1A5 JUMPI PUSH1 0x0 PUSH1 0x1 DUP3 PUSH1 0x4 DUP2 LT PUSH3 0x140 JUMPI PUSH3 0x13F PUSH3 0x762 JUMP JUMPDEST JUMPDEST ADD PUSH1 0x40 MLOAD PUSH1 0x20 ADD PUSH3 0x153 SWAP2 SWAP1 PUSH3 0x52A JUMP JUMPDEST PUSH1 0x40 MLOAD PUSH1 0x20 DUP2 DUP4 SUB SUB DUP2 MSTORE SWAP1 PUSH1 0x40 MSTORE DUP1 MLOAD SWAP1 PUSH1 0x20 ADD KECCAK256 SWAP1 DUP1 PUSH1 0x1 DUP2 SLOAD ADD DUP1 DUP3 SSTORE DUP1 SWAP2 POP POP PUSH1 0x1 SWAP1 SUB SWAP1 PUSH1 0x0 MSTORE PUSH1 0x20 PUSH1 0x0 KECCAK256 ADD PUSH1 0x0 SWAP1 SWAP2 SWAP1 SWAP2 SWAP1 SWAP2 POP SSTORE DUP1 DUP1 PUSH3 0x19C SWAP1 PUSH3 0x67D JUMP JUMPDEST SWAP2 POP POP PUSH3 0x11D JUMP JUMPDEST POP PUSH1 0x0 PUSH1 0x4 SWAP1 POP PUSH1 0x0 JUMPDEST PUSH1 0x0 DUP3 GT ISZERO PUSH3 0x2D4 JUMPI PUSH1 0x0 JUMPDEST PUSH1 0x1 DUP4 PUSH3 0x1CB SWAP2 SWAP1 PUSH3 0x5F8 JUMP JUMPDEST DUP2 LT ISZERO PUSH3 0x2AC JUMPI PUSH1 0x0 DUP1 DUP4 DUP4 PUSH3 0x1E4 SWAP2 SWAP1 PUSH3 0x563 JUMP JUMPDEST DUP2 SLOAD DUP2 LT PUSH3 0x1F8 JUMPI PUSH3 0x1F7 PUSH3 0x762 JUMP JUMPDEST JUMPDEST SWAP1 PUSH1 0x0 MSTORE PUSH1 0x20 PUSH1 0x0 KECCAK256 ADD SLOAD PUSH1 0x0 PUSH1 0x1 DUP6 DUP6 PUSH3 0x215 SWAP2 SWAP1 PUSH3 0x563 JUMP JUMPDEST PUSH3 0x221 SWAP2 SWAP1 PUSH3 0x563 JUMP JUMPDEST DUP2 SLOAD DUP2 LT PUSH3 0x235 JUMPI PUSH3 0x234 PUSH3 0x762 JUMP JUMPDEST JUMPDEST SWAP1 PUSH1 0x0 MSTORE PUSH1 0x20 PUSH1 0x0 KECCAK256 ADD SLOAD PUSH1 0x40 MLOAD PUSH1 0x20 ADD PUSH3 0x253 SWAP3 SWAP2 SWAP1 PUSH3 0x4FA JUMP JUMPDEST PUSH1 0x40 MLOAD PUSH1 0x20 DUP2 DUP4 SUB SUB DUP2 MSTORE SWAP1 PUSH1 0x40 MSTORE DUP1 MLOAD SWAP1 PUSH1 0x20 ADD KECCAK256 SWAP1 POP PUSH1 0x0 DUP2 SWAP1 DUP1 PUSH1 0x1 DUP2 SLOAD ADD DUP1 DUP3 SSTORE DUP1 SWAP2 POP POP PUSH1 0x1 SWAP1 SUB SWAP1 PUSH1 0x0 MSTORE PUSH1 0x20 PUSH1 0x0 KECCAK256 ADD PUSH1 0x0 SWAP1 SWAP2 SWAP1 SWAP2 SWAP1 SWAP2 POP SSTORE POP PUSH1 0x2 DUP2 PUSH3 0x2A4 SWAP2 SWAP1 PUSH3 0x563 JUMP JUMPDEST SWAP1 POP PUSH3 0x1BC JUMP JUMPDEST POP DUP2 DUP2 PUSH3 0x2BB SWAP2 SWAP1 PUSH3 0x563 JUMP JUMPDEST SWAP1 POP PUSH1 0x2 DUP3 PUSH3 0x2CC SWAP2 SWAP1 PUSH3 0x5C0 JUMP JUMPDEST SWAP2 POP PUSH3 0x1AF JUMP JUMPDEST POP POP PUSH3 0x791 JUMP JUMPDEST DUP3 PUSH1 0x4 DUP2 ADD SWAP3 DUP3 ISZERO PUSH3 0x323 JUMPI SWAP2 PUSH1 0x20 MUL DUP3 ADD JUMPDEST DUP3 DUP2 GT ISZERO PUSH3 0x322 JUMPI DUP3 MLOAD DUP3 SWAP1 DUP1 MLOAD SWAP1 PUSH1 0x20 ADD SWAP1 PUSH3 0x311 SWAP3 SWAP2 SWAP1 PUSH3 0x336 JUMP JUMPDEST POP SWAP2 PUSH1 0x20 ADD SWAP2 SWAP1 PUSH1 0x1 ADD SWAP1 PUSH3 0x2F0 JUMP JUMPDEST JUMPDEST POP SWAP1 POP PUSH3 0x332 SWAP2 SWAP1 PUSH3 0x3C7 JUMP JUMPDEST POP SWAP1 JUMP JUMPDEST DUP3 DUP1 SLOAD PUSH3 0x344 SWAP1 PUSH3 0x647 JUMP JUMPDEST SWAP1 PUSH1 0x0 MSTORE PUSH1 0x20 PUSH1 0x0 KECCAK256 SWAP1 PUSH1 0x1F ADD PUSH1 0x20 SWAP1 DIV DUP2 ADD SWAP3 DUP3 PUSH3 0x368 JUMPI PUSH1 0x0 DUP6 SSTORE PUSH3 0x3B4 JUMP JUMPDEST DUP3 PUSH1 0x1F LT PUSH3 0x383 JUMPI DUP1 MLOAD PUSH1 0xFF NOT AND DUP4 DUP1 ADD OR DUP6 SSTORE PUSH3 0x3B4 JUMP JUMPDEST DUP3 DUP1 ADD PUSH1 0x1 ADD DUP6 SSTORE DUP3 ISZERO PUSH3 0x3B4 JUMPI SWAP2 DUP3 ADD JUMPDEST DUP3 DUP2 GT ISZERO PUSH3 0x3B3 JUMPI DUP3 MLOAD DUP3 SSTORE SWAP2 PUSH1 0x20 ADD SWAP2 SWAP1 PUSH1 0x1 ADD SWAP1 PUSH3 0x396 JUMP JUMPDEST JUMPDEST POP SWAP1 POP PUSH3 0x3C3 SWAP2 SWAP1 PUSH3 0x3EF JUMP JUMPDEST POP SWAP1 JUMP JUMPDEST JUMPDEST DUP1 DUP3 GT ISZERO PUSH3 0x3EB JUMPI PUSH1 0x0 DUP2 DUP2 PUSH3 0x3E1 SWAP2 SWAP1 PUSH3 0x40E JUMP JUMPDEST POP PUSH1 0x1 ADD PUSH3 0x3C8 JUMP JUMPDEST POP SWAP1 JUMP JUMPDEST JUMPDEST DUP1 DUP3 GT ISZERO PUSH3 0x40A JUMPI PUSH1 0x0 DUP2 PUSH1 0x0 SWAP1 SSTORE POP PUSH1 0x1 ADD PUSH3 0x3F0 JUMP JUMPDEST POP SWAP1 JUMP JUMPDEST POP DUP1 SLOAD PUSH3 0x41C SWAP1 PUSH3 0x647 JUMP JUMPDEST PUSH1 0x0 DUP3 SSTORE DUP1 PUSH1 0x1F LT PUSH3 0x430 JUMPI POP PUSH3 0x451 JUMP JUMPDEST PUSH1 0x1F ADD PUSH1 0x20 SWAP1 DIV SWAP1 PUSH1 0x0 MSTORE PUSH1 0x20 PUSH1 0x0 KECCAK256 SWAP1 DUP2 ADD SWAP1 PUSH3 0x450 SWAP2 SWAP1 PUSH3 0x3EF JUMP JUMPDEST JUMPDEST POP JUMP JUMPDEST PUSH3 0x469 PUSH3 0x463 DUP3 PUSH3 0x633 JUMP JUMPDEST PUSH3 0x6CB JUMP JUMPDEST DUP3 MSTORE POP POP JUMP JUMPDEST PUSH1 0x0 DUP2 SLOAD PUSH3 0x47E DUP2 PUSH3 0x647 JUMP JUMPDEST PUSH3 0x48A DUP2 DUP7 PUSH3 0x558 JUMP JUMPDEST SWAP5 POP PUSH1 0x1 DUP3 AND PUSH1 0x0 DUP2 EQ PUSH3 0x4A8 JUMPI PUSH1 0x1 DUP2 EQ PUSH3 0x4BA JUMPI PUSH3 0x4F1 JUMP JUMPDEST PUSH1 0xFF NOT DUP4 AND DUP7 MSTORE DUP2 DUP7 ADD SWAP4 POP PUSH3 0x4F1 JUMP JUMPDEST PUSH3 0x4C5 DUP6 PUSH3 0x543 JUMP JUMPDEST PUSH1 0x0 JUMPDEST DUP4 DUP2 LT ISZERO PUSH3 0x4E9 JUMPI DUP2 SLOAD DUP2 DUP10 ADD MSTORE PUSH1 0x1 DUP3 ADD SWAP2 POP PUSH1 0x20 DUP2 ADD SWAP1 POP PUSH3 0x4C8 JUMP JUMPDEST DUP4 DUP9 ADD SWAP6 POP POP POP JUMPDEST POP POP POP SWAP3 SWAP2 POP POP JUMP JUMPDEST PUSH1 0x0 PUSH3 0x508 DUP3 DUP6 PUSH3 0x454 JUMP JUMPDEST PUSH1 0x20 DUP3 ADD SWAP2 POP PUSH3 0x51A DUP3 DUP5 PUSH3 0x454 JUMP JUMPDEST PUSH1 0x20 DUP3 ADD SWAP2 POP DUP2 SWAP1 POP SWAP4 SWAP3 POP POP POP JUMP JUMPDEST PUSH1 0x0 PUSH3 0x538 DUP3 DUP5 PUSH3 0x46F JUMP JUMPDEST SWAP2 POP DUP2 SWAP1 POP SWAP3 SWAP2 POP POP JUMP JUMPDEST PUSH1 0x0 DUP2 SWAP1 POP DUP2 PUSH1 0x0 MSTORE PUSH1 0x20 PUSH1 0x0 KECCAK256 SWAP1 POP SWAP2 SWAP1 POP JUMP JUMPDEST PUSH1 0x0 DUP2 SWAP1 POP SWAP3 SWAP2 POP POP JUMP JUMPDEST PUSH1 0x0 PUSH3 0x570 DUP3 PUSH3 0x63D JUMP JUMPDEST SWAP2 POP PUSH3 0x57D DUP4 PUSH3 0x63D JUMP JUMPDEST SWAP3 POP DUP3 PUSH32 0xFFFFFFFFFFFFFFFFFFFFFFFFFFFFFFFFFFFFFFFFFFFFFFFFFFFFFFFFFFFFFFFF SUB DUP3 GT ISZERO PUSH3 0x5B5 JUMPI PUSH3 0x5B4 PUSH3 0x6D5 JUMP JUMPDEST JUMPDEST DUP3 DUP3 ADD SWAP1 POP SWAP3 SWAP2 POP POP JUMP JUMPDEST PUSH1 0x0 PUSH3 0x5CD DUP3 PUSH3 0x63D JUMP JUMPDEST SWAP2 POP PUSH3 0x5DA DUP4 PUSH3 0x63D JUMP JUMPDEST SWAP3 POP DUP3 PUSH3 0x5ED JUMPI PUSH3 0x5EC PUSH3 0x704 JUMP JUMPDEST JUMPDEST DUP3 DUP3 DIV SWAP1 POP SWAP3 SWAP2 POP POP JUMP JUMPDEST PUSH1 0x0 PUSH3 0x605 DUP3 PUSH3 0x63D JUMP JUMPDEST SWAP2 POP PUSH3 0x612 DUP4 PUSH3 0x63D JUMP JUMPDEST SWAP3 POP DUP3 DUP3 LT ISZERO PUSH3 0x628 JUMPI PUSH3 0x627 PUSH3 0x6D5 JUMP JUMPDEST JUMPDEST DUP3 DUP3 SUB SWAP1 POP SWAP3 SWAP2 POP POP JUMP JUMPDEST PUSH1 0x0 DUP2 SWAP1 POP SWAP2 SWAP1 POP JUMP JUMPDEST PUSH1 0x0 DUP2 SWAP1 POP SWAP2 SWAP1 POP JUMP JUMPDEST PUSH1 0x0 PUSH1 0x2 DUP3 DIV SWAP1 POP PUSH1 0x1 DUP3 AND DUP1 PUSH3 0x660 JUMPI PUSH1 0x7F DUP3 AND SWAP2 POP JUMPDEST PUSH1 0x20 DUP3 LT DUP2 EQ ISZERO PUSH3 0x677 JUMPI PUSH3 0x676 PUSH3 0x733 JUMP JUMPDEST JUMPDEST POP SWAP2 SWAP1 POP JUMP JUMPDEST PUSH1 0x0 PUSH3 0x68A DUP3 PUSH3 0x63D JUMP JUMPDEST SWAP2 POP PUSH32 0xFFFFFFFFFFFFFFFFFFFFFFFFFFFFFFFFFFFFFFFFFFFFFFFFFFFFFFFFFFFFFFFF DUP3 EQ ISZERO PUSH3 0x6C0 JUMPI PUSH3 0x6BF PUSH3 0x6D5 JUMP JUMPDEST JUMPDEST PUSH1 0x1 DUP3 ADD SWAP1 POP SWAP2 SWAP1 POP JUMP JUMPDEST PUSH1 0x0 DUP2 SWAP1 POP SWAP2 SWAP1 POP JUMP JUMPDEST PUSH32 0x4E487B7100000000000000000000000000000000000000000000000000000000 PUSH1 0x0 MSTORE PUSH1 0x11 PUSH1 0x4 MSTORE PUSH1 0x24 PUSH1 0x0 REVERT JUMPDEST PUSH32 0x4E487B7100000000000000000000000000000000000000000000000000000000 PUSH1 0x0 MSTORE PUSH1 0x12 PUSH1 0x4 MSTORE PUSH1 0x24 PUSH1 0x0 REVERT JUMPDEST PUSH32 0x4E487B7100000000000000000000000000000000000000000000000000000000 PUSH1 0x0 MSTORE PUSH1 0x22 PUSH1 0x4 MSTORE PUSH1 0x24 PUSH1 0x0 REVERT JUMPDEST PUSH32 0x4E487B7100000000000000000000000000000000000000000000000000000000 PUSH1 0x0 MSTORE PUSH1 0x32 PUSH1 0x4 MSTORE PUSH1 0x24 PUSH1 0x0 REVERT JUMPDEST PUSH2 0x6D1 DUP1 PUSH3 0x7A1 PUSH1 0x0 CODECOPY PUSH1 0x0 RETURN INVALID PUSH1 0x80 PUSH1 0x40 MSTORE CALLVALUE DUP1 ISZERO PUSH2 0x10 JUMPI PUSH1 0x0 DUP1 REVERT JUMPDEST POP PUSH1 0x4 CALLDATASIZE LT PUSH2 0x41 JUMPI PUSH1 0x0 CALLDATALOAD PUSH1 0xE0 SHR DUP1 PUSH4 0x501895AE EQ PUSH2 0x46 JUMPI DUP1 PUSH4 0x5CA1E165 EQ PUSH2 0x76 JUMPI DUP1 PUSH4 0x9F49493B EQ PUSH2 0x94 JUMPI JUMPDEST PUSH1 0x0 DUP1 REVERT JUMPDEST PUSH2 0x60 PUSH1 0x4 DUP1 CALLDATASIZE SUB DUP2 ADD SWAP1 PUSH2 0x5B SWAP2 SWAP1 PUSH2 0x33D JUMP JUMPDEST PUSH2 0xC4 JUMP JUMPDEST PUSH1 0x40 MLOAD PUSH2 0x6D SWAP2 SWAP1 PUSH2 0x3E6 JUMP JUMPDEST PUSH1 0x40 MLOAD DUP1 SWAP2 SUB SWAP1 RETURN JUMPDEST PUSH2 0x7E PUSH2 0xE8 JUMP JUMPDEST PUSH1 0x40 MLOAD PUSH2 0x8B SWAP2 SWAP1 PUSH2 0x3E6 JUMP JUMPDEST PUSH1 0x40 MLOAD DUP1 SWAP2 SUB SWAP1 RETURN JUMPDEST PUSH2 0xAE PUSH1 0x4 DUP1 CALLDATASIZE SUB DUP2 ADD SWAP1 PUSH2 0xA9 SWAP2 SWAP1 PUSH2 0x2BA JUMP JUMPDEST PUSH2 0x11E JUMP JUMPDEST PUSH1 0x40 MLOAD PUSH2 0xBB SWAP2 SWAP1 PUSH2 0x3CB JUMP JUMPDEST PUSH1 0x40 MLOAD DUP1 SWAP2 SUB SWAP1 RETURN JUMPDEST PUSH1 0x0 DUP2 DUP2 SLOAD DUP2 LT PUSH2 0xD4 JUMPI PUSH1 0x0 DUP1 REVERT JUMPDEST SWAP1 PUSH1 0x0 MSTORE PUSH1 0x20 PUSH1 0x0 KECCAK256 ADD PUSH1 0x0 SWAP2 POP SWAP1 POP SLOAD DUP2 JUMP JUMPDEST PUSH1 0x0 DUP1 PUSH1 0x1 PUSH1 0x0 DUP1 SLOAD SWAP1 POP PUSH2 0xFD SWAP2 SWAP1 PUSH2 0x483 JUMP JUMPDEST DUP2 SLOAD DUP2 LT PUSH2 0x10E JUMPI PUSH2 0x10D PUSH2 0x5EA JUMP JUMPDEST JUMPDEST SWAP1 PUSH1 0x0 MSTORE PUSH1 0x20 PUSH1 0x0 KECCAK256 ADD SLOAD SWAP1 POP SWAP1 JUMP JUMPDEST PUSH1 0x0 DUP1 DUP5 SWAP1 POP PUSH1 0x0 JUMPDEST DUP4 MLOAD DUP2 LT ISZERO PUSH2 0x1E3 JUMPI PUSH1 0x0 DUP5 DUP3 DUP2 MLOAD DUP2 LT PUSH2 0x145 JUMPI PUSH2 0x144 PUSH2 0x5EA JUMP JUMPDEST JUMPDEST PUSH1 0x20 MUL PUSH1 0x20 ADD ADD MLOAD SWAP1 POP PUSH1 0x0 PUSH1 0x2 DUP8 PUSH2 0x15E SWAP2 SWAP1 PUSH2 0x55B JUMP JUMPDEST EQ ISZERO PUSH2 0x194 JUMPI DUP3 DUP2 PUSH1 0x40 MLOAD PUSH1 0x20 ADD PUSH2 0x177 SWAP3 SWAP2 SWAP1 PUSH2 0x39F JUMP JUMPDEST PUSH1 0x40 MLOAD PUSH1 0x20 DUP2 DUP4 SUB SUB DUP2 MSTORE SWAP1 PUSH1 0x40 MSTORE DUP1 MLOAD SWAP1 PUSH1 0x20 ADD KECCAK256 SWAP3 POP PUSH2 0x1C0 JUMP JUMPDEST DUP1 DUP4 PUSH1 0x40 MLOAD PUSH1 0x20 ADD PUSH2 0x1A7 SWAP3 SWAP2 SWAP1 PUSH2 0x39F JUMP JUMPDEST PUSH1 0x40 MLOAD PUSH1 0x20 DUP2 DUP4 SUB SUB DUP2 MSTORE SWAP1 PUSH1 0x40 MSTORE DUP1 MLOAD SWAP1 PUSH1 0x20 ADD KECCAK256 SWAP3 POP JUMPDEST PUSH1 0x2 DUP7 PUSH2 0x1CD SWAP2 SWAP1 PUSH2 0x452 JUMP JUMPDEST SWAP6 POP POP DUP1 DUP1 PUSH2 0x1DB SWAP1 PUSH2 0x508 JUMP JUMPDEST SWAP2 POP POP PUSH2 0x127 JUMP JUMPDEST POP DUP6 DUP2 EQ SWAP2 POP POP SWAP5 SWAP4 POP POP POP POP JUMP JUMPDEST PUSH1 0x0 PUSH2 0x205 PUSH2 0x200 DUP5 PUSH2 0x426 JUMP JUMPDEST PUSH2 0x401 JUMP JUMPDEST SWAP1 POP DUP1 DUP4 DUP3 MSTORE PUSH1 0x20 DUP3 ADD SWAP1 POP DUP3 DUP6 PUSH1 0x20 DUP7 MUL DUP3 ADD GT ISZERO PUSH2 0x228 JUMPI PUSH2 0x227 PUSH2 0x64D JUMP JUMPDEST JUMPDEST PUSH1 0x0 JUMPDEST DUP6 DUP2 LT ISZERO PUSH2 0x258 JUMPI DUP2 PUSH2 0x23E DUP9 DUP3 PUSH2 0x290 JUMP JUMPDEST DUP5 MSTORE PUSH1 0x20 DUP5 ADD SWAP4 POP PUSH1 0x20 DUP4 ADD SWAP3 POP POP PUSH1 0x1 DUP2 ADD SWAP1 POP PUSH2 0x22B JUMP JUMPDEST POP POP POP SWAP4 SWAP3 POP POP POP JUMP JUMPDEST PUSH1 0x0 DUP3 PUSH1 0x1F DUP4 ADD SLT PUSH2 0x277 JUMPI PUSH2 0x276 PUSH2 0x648 JUMP JUMPDEST JUMPDEST DUP2 CALLDATALOAD PUSH2 0x287 DUP5 DUP3 PUSH1 0x20 DUP7 ADD PUSH2 0x1F2 JUMP JUMPDEST SWAP2 POP POP SWAP3 SWAP2 POP POP JUMP JUMPDEST PUSH1 0x0 DUP2 CALLDATALOAD SWAP1 POP PUSH2 0x29F DUP2 PUSH2 0x66D JUMP JUMPDEST SWAP3 SWAP2 POP POP JUMP JUMPDEST PUSH1 0x0 DUP2 CALLDATALOAD SWAP1 POP PUSH2 0x2B4 DUP2 PUSH2 0x684 JUMP JUMPDEST SWAP3 SWAP2 POP POP JUMP JUMPDEST PUSH1 0x0 DUP1 PUSH1 0x0 DUP1 PUSH1 0x80 DUP6 DUP8 SUB SLT ISZERO PUSH2 0x2D4 JUMPI PUSH2 0x2D3 PUSH2 0x657 JUMP JUMPDEST JUMPDEST PUSH1 0x0 PUSH2 0x2E2 DUP8 DUP3 DUP9 ADD PUSH2 0x290 JUMP JUMPDEST SWAP5 POP POP PUSH1 0x20 PUSH2 0x2F3 DUP8 DUP3 DUP9 ADD PUSH2 0x290 JUMP JUMPDEST SWAP4 POP POP PUSH1 0x40 PUSH2 0x304 DUP8 DUP3 DUP9 ADD PUSH2 0x2A5 JUMP JUMPDEST SWAP3 POP POP PUSH1 0x60 DUP6 ADD CALLDATALOAD PUSH8 0xFFFFFFFFFFFFFFFF DUP2 GT ISZERO PUSH2 0x325 JUMPI PUSH2 0x324 PUSH2 0x652 JUMP JUMPDEST JUMPDEST PUSH2 0x331 DUP8 DUP3 DUP9 ADD PUSH2 0x262 JUMP JUMPDEST SWAP2 POP POP SWAP3 SWAP6 SWAP2 SWAP5 POP SWAP3 POP JUMP JUMPDEST PUSH1 0x0 PUSH1 0x20 DUP3 DUP5 SUB SLT ISZERO PUSH2 0x353 JUMPI PUSH2 0x352 PUSH2 0x657 JUMP JUMPDEST JUMPDEST PUSH1 0x0 PUSH2 0x361 DUP5 DUP3 DUP6 ADD PUSH2 0x2A5 JUMP JUMPDEST SWAP2 POP POP SWAP3 SWAP2 POP POP JUMP JUMPDEST PUSH2 0x373 DUP2 PUSH2 0x4B7 JUMP JUMPDEST DUP3 MSTORE POP POP JUMP JUMPDEST PUSH2 0x382 DUP2 PUSH2 0x4C3 JUMP JUMPDEST DUP3 MSTORE POP POP JUMP JUMPDEST PUSH2 0x399 PUSH2 0x394 DUP3 PUSH2 0x4C3 JUMP JUMPDEST PUSH2 0x551 JUMP JUMPDEST DUP3 MSTORE POP POP JUMP JUMPDEST PUSH1 0x0 PUSH2 0x3AB DUP3 DUP6 PUSH2 0x388 JUMP JUMPDEST PUSH1 0x20 DUP3 ADD SWAP2 POP PUSH2 0x3BB DUP3 DUP5 PUSH2 0x388 JUMP JUMPDEST PUSH1 0x20 DUP3 ADD SWAP2 POP DUP2 SWAP1 POP SWAP4 SWAP3 POP POP POP JUMP JUMPDEST PUSH1 0x0 PUSH1 0x20 DUP3 ADD SWAP1 POP PUSH2 0x3E0 PUSH1 0x0 DUP4 ADD DUP5 PUSH2 0x36A JUMP JUMPDEST SWAP3 SWAP2 POP POP JUMP JUMPDEST PUSH1 0x0 PUSH1 0x20 DUP3 ADD SWAP1 POP PUSH2 0x3FB PUSH1 0x0 DUP4 ADD DUP5 PUSH2 0x379 JUMP JUMPDEST SWAP3 SWAP2 POP POP JUMP JUMPDEST PUSH1 0x0 PUSH2 0x40B PUSH2 0x41C JUMP JUMPDEST SWAP1 POP PUSH2 0x417 DUP3 DUP3 PUSH2 0x4D7 JUMP JUMPDEST SWAP2 SWAP1 POP JUMP JUMPDEST PUSH1 0x0 PUSH1 0x40 MLOAD SWAP1 POP SWAP1 JUMP JUMPDEST PUSH1 0x0 PUSH8 0xFFFFFFFFFFFFFFFF DUP3 GT ISZERO PUSH2 0x441 JUMPI PUSH2 0x440 PUSH2 0x619 JUMP JUMPDEST JUMPDEST PUSH1 0x20 DUP3 MUL SWAP1 POP PUSH1 0x20 DUP2 ADD SWAP1 POP SWAP2 SWAP1 POP JUMP JUMPDEST PUSH1 0x0 PUSH2 0x45D DUP3 PUSH2 0x4CD JUMP JUMPDEST SWAP2 POP PUSH2 0x468 DUP4 PUSH2 0x4CD JUMP JUMPDEST SWAP3 POP DUP3 PUSH2 0x478 JUMPI PUSH2 0x477 PUSH2 0x5BB JUMP JUMPDEST JUMPDEST DUP3 DUP3 DIV SWAP1 POP SWAP3 SWAP2 POP POP JUMP JUMPDEST PUSH1 0x0 PUSH2 0x48E DUP3 PUSH2 0x4CD JUMP JUMPDEST SWAP2 POP PUSH2 0x499 DUP4 PUSH2 0x4CD JUMP JUMPDEST SWAP3 POP DUP3 DUP3 LT ISZERO PUSH2 0x4AC JUMPI PUSH2 0x4AB PUSH2 0x58C JUMP JUMPDEST JUMPDEST DUP3 DUP3 SUB SWAP1 POP SWAP3 SWAP2 POP POP JUMP JUMPDEST PUSH1 0x0 DUP2 ISZERO ISZERO SWAP1 POP SWAP2 SWAP1 POP JUMP JUMPDEST PUSH1 0x0 DUP2 SWAP1 POP SWAP2 SWAP1 POP JUMP JUMPDEST PUSH1 0x0 DUP2 SWAP1 POP SWAP2 SWAP1 POP JUMP JUMPDEST PUSH2 0x4E0 DUP3 PUSH2 0x65C JUMP JUMPDEST DUP2 ADD DUP2 DUP2 LT PUSH8 0xFFFFFFFFFFFFFFFF DUP3 GT OR ISZERO PUSH2 0x4FF JUMPI PUSH2 0x4FE PUSH2 0x619 JUMP JUMPDEST JUMPDEST DUP1 PUSH1 0x40 MSTORE POP POP POP JUMP JUMPDEST PUSH1 0x0 PUSH2 0x513 DUP3 PUSH2 0x4CD JUMP JUMPDEST SWAP2 POP PUSH32 0xFFFFFFFFFFFFFFFFFFFFFFFFFFFFFFFFFFFFFFFFFFFFFFFFFFFFFFFFFFFFFFFF DUP3 EQ ISZERO PUSH2 0x546 JUMPI PUSH2 0x545 PUSH2 0x58C JUMP JUMPDEST JUMPDEST PUSH1 0x1 DUP3 ADD SWAP1 POP SWAP2 SWAP1 POP JUMP JUMPDEST PUSH1 0x0 DUP2 SWAP1 POP SWAP2 SWAP1 POP JUMP JUMPDEST PUSH1 0x0 PUSH2 0x566 DUP3 PUSH2 0x4CD JUMP JUMPDEST SWAP2 POP PUSH2 0x571 DUP4 PUSH2 0x4CD JUMP JUMPDEST SWAP3 POP DUP3 PUSH2 0x581 JUMPI PUSH2 0x580 PUSH2 0x5BB JUMP JUMPDEST JUMPDEST DUP3 DUP3 MOD SWAP1 POP SWAP3 SWAP2 POP POP JUMP JUMPDEST PUSH32 0x4E487B7100000000000000000000000000000000000000000000000000000000 PUSH1 0x0 MSTORE PUSH1 0x11 PUSH1 0x4 MSTORE PUSH1 0x24 PUSH1 0x0 REVERT JUMPDEST PUSH32 0x4E487B7100000000000000000000000000000000000000000000000000000000 PUSH1 0x0 MSTORE PUSH1 0x12 PUSH1 0x4 MSTORE PUSH1 0x24 PUSH1 0x0 REVERT JUMPDEST PUSH32 0x4E487B7100000000000000000000000000000000000000000000000000000000 PUSH1 0x0 MSTORE PUSH1 0x32 PUSH1 0x4 MSTORE PUSH1 0x24 PUSH1 0x0 REVERT JUMPDEST PUSH32 0x4E487B7100000000000000000000000000000000000000000000000000000000 PUSH1 0x0 MSTORE PUSH1 0x41 PUSH1 0x4 MSTORE PUSH1 0x24 PUSH1 0x0 REVERT JUMPDEST PUSH1 0x0 DUP1 REVERT JUMPDEST PUSH1 0x0 DUP1 REVERT JUMPDEST PUSH1 0x0 DUP1 REVERT JUMPDEST PUSH1 0x0 DUP1 REVERT JUMPDEST PUSH1 0x0 PUSH1 0x1F NOT PUSH1 0x1F DUP4 ADD AND SWAP1 POP SWAP2 SWAP1 POP JUMP JUMPDEST PUSH2 0x676 DUP2 PUSH2 0x4C3 JUMP JUMPDEST DUP2 EQ PUSH2 0x681 JUMPI PUSH1 0x0 DUP1 REVERT JUMPDEST POP JUMP JUMPDEST PUSH2 0x68D DUP2 PUSH2 0x4CD JUMP JUMPDEST DUP2 EQ PUSH2 0x698 JUMPI PUSH1 0x0 DUP1 REVERT JUMPDEST POP JUMP INVALID LOG2 PUSH5 0x6970667358 0x22 SLT KECCAK256 JUMPDEST ADDMOD DUP2 BALANCE SHR 0xC8 0xE3 SWAP10 AND 0xB6 PUSH20 0x69E7E6E6F627513A161C18909C00AD9EC93DFDE9 CALL PUSH5 0x736F6C6343 STOP ADDMOD SMOD STOP CALLER "
				},
				"gasEstimates": {
					"creation": {
						"codeDepositCost": "349000",
						"executionCost": "infinite",
						"totalCost": "infinite"
					},
					"external": {
						"getRoot()": "infinite",
						"hashes(uint256)": "4860",
						"verify(bytes32,bytes32,uint256,bytes32[])": "infinite"
					}
				},
				"methodIdentifiers": {
					"getRoot()": "5ca1e165",
					"hashes(uint256)": "501895ae",
					"verify(bytes32,bytes32,uint256,bytes32[])": "9f49493b"
				}
			},
			"storageLayout": {
				"storage": [
					{
						"astId": 4,
						"contract": "merkle_tree/_MerkleTree.sol:Tree",
						"label": "hashes",
						"offset": 0,
						"slot": "0",
						"type": "t_array(t_bytes32)dyn_storage"
					},
					{
						"astId": 13,
						"contract": "merkle_tree/_MerkleTree.sol:Tree",
						"label": "heroes",
						"offset": 0,
						"slot": "1",
						"type": "t_array(t_string_storage)4_storage"
					}
				],
				"types": {
					"t_array(t_bytes32)dyn_storage": {
						"base": "t_bytes32",
						"encoding": "dynamic_array",
						"label": "bytes32[]",
						"numberOfBytes": "32"
					},
					"t_array(t_string_storage)4_storage": {
						"base": "t_string_storage",
						"encoding": "inplace",
						"label": "string[4]",
						"numberOfBytes": "128"
					},
					"t_bytes32": {
						"encoding": "inplace",
						"label": "bytes32",
						"numberOfBytes": "32"
					},
					"t_string_storage": {
						"encoding": "bytes",
						"label": "string",
						"numberOfBytes": "32"
					}
				}
			},
			"userdoc": {
				"kind": "user",
				"methods": {},
				"version": 1
			}
		}
	}
}